{
	"CrowdFunding.sol": {
		"CrowdFunding": {
			"abi": [
				{
					"inputs": [
						{
							"internalType": "uint256",
							"name": "_target",
							"type": "uint256"
						},
						{
							"internalType": "uint256",
							"name": "_deadline",
							"type": "uint256"
						}
					],
					"stateMutability": "nonpayable",
					"type": "constructor"
				},
				{
					"inputs": [
						{
							"internalType": "address",
							"name": "",
							"type": "address"
						}
					],
					"name": "contributors",
					"outputs": [
						{
							"internalType": "uint256",
							"name": "",
							"type": "uint256"
						}
					],
					"stateMutability": "view",
					"type": "function"
				},
				{
					"inputs": [
						{
							"internalType": "string",
							"name": "_description",
							"type": "string"
						},
						{
							"internalType": "address payable",
							"name": "_recipient",
							"type": "address"
						},
						{
							"internalType": "uint256",
							"name": "_value",
							"type": "uint256"
						}
					],
					"name": "createRequests",
					"outputs": [],
					"stateMutability": "nonpayable",
					"type": "function"
				},
				{
					"inputs": [],
					"name": "deadline",
					"outputs": [
						{
							"internalType": "uint256",
							"name": "",
							"type": "uint256"
						}
					],
					"stateMutability": "view",
					"type": "function"
				},
				{
					"inputs": [],
					"name": "getContractBalance",
					"outputs": [
						{
							"internalType": "uint256",
							"name": "",
							"type": "uint256"
						}
					],
					"stateMutability": "view",
					"type": "function"
				},
				{
					"inputs": [
						{
							"internalType": "uint256",
							"name": "_requestNo",
							"type": "uint256"
						}
					],
					"name": "makePayment",
					"outputs": [],
					"stateMutability": "nonpayable",
					"type": "function"
				},
				{
					"inputs": [],
					"name": "manager",
					"outputs": [
						{
							"internalType": "address",
							"name": "",
							"type": "address"
						}
					],
					"stateMutability": "view",
					"type": "function"
				},
				{
					"inputs": [],
					"name": "minContribution",
					"outputs": [
						{
							"internalType": "uint256",
							"name": "",
							"type": "uint256"
						}
					],
					"stateMutability": "view",
					"type": "function"
				},
				{
					"inputs": [],
					"name": "noOfContributors",
					"outputs": [
						{
							"internalType": "uint256",
							"name": "",
							"type": "uint256"
						}
					],
					"stateMutability": "view",
					"type": "function"
				},
				{
					"inputs": [],
					"name": "numRequests",
					"outputs": [
						{
							"internalType": "uint256",
							"name": "",
							"type": "uint256"
						}
					],
					"stateMutability": "view",
					"type": "function"
				},
				{
					"inputs": [],
					"name": "raisedAmount",
					"outputs": [
						{
							"internalType": "uint256",
							"name": "",
							"type": "uint256"
						}
					],
					"stateMutability": "view",
					"type": "function"
				},
				{
					"inputs": [],
					"name": "refund",
					"outputs": [],
					"stateMutability": "nonpayable",
					"type": "function"
				},
				{
					"inputs": [
						{
							"internalType": "uint256",
							"name": "",
							"type": "uint256"
						}
					],
					"name": "requests",
					"outputs": [
						{
							"internalType": "string",
							"name": "description",
							"type": "string"
						},
						{
							"internalType": "address payable",
							"name": "recipient",
							"type": "address"
						},
						{
							"internalType": "uint256",
							"name": "value",
							"type": "uint256"
						},
						{
							"internalType": "bool",
							"name": "completed",
							"type": "bool"
						},
						{
							"internalType": "uint256",
							"name": "noOfVoters",
							"type": "uint256"
						}
					],
					"stateMutability": "view",
					"type": "function"
				},
				{
					"inputs": [],
					"name": "sendEth",
					"outputs": [],
					"stateMutability": "payable",
					"type": "function"
				},
				{
					"inputs": [],
					"name": "target",
					"outputs": [
						{
							"internalType": "uint256",
							"name": "",
							"type": "uint256"
						}
					],
					"stateMutability": "view",
					"type": "function"
				},
				{
					"inputs": [
						{
							"internalType": "uint256",
							"name": "_requestNo",
							"type": "uint256"
						}
					],
					"name": "voteRequest",
					"outputs": [],
					"stateMutability": "nonpayable",
					"type": "function"
				}
			],
			"devdoc": {
				"kind": "dev",
				"methods": {},
				"version": 1
			},
			"evm": {
				"assembly": "    /* \"CrowdFunding.sol\":74:2885  contract CrowdFunding {\r... */\n  mstore(0x40, 0x80)\n    /* \"CrowdFunding.sol\":624:817  constructor(uint _target, uint _deadline){\r... */\n  callvalue\n  dup1\n  iszero\n  tag_1\n  jumpi\n  0x00\n  dup1\n  revert\ntag_1:\n  pop\n  mload(0x40)\n  sub(codesize, bytecodeSize)\n  dup1\n  bytecodeSize\n  dup4\n  codecopy\n  dup2\n  dup2\n  add\n  0x40\n  mstore\n  dup2\n  add\n  swap1\n  tag_2\n  swap2\n  swap1\n  tag_3\n  jump\t// in\ntag_2:\n    /* \"CrowdFunding.sol\":685:692  _target */\n  dup2\n    /* \"CrowdFunding.sol\":676:682  target */\n  0x04\n    /* \"CrowdFunding.sol\":676:692  target = _target */\n  dup2\n  swap1\n  sstore\n  pop\n    /* \"CrowdFunding.sol\":732:741  _deadline */\n  dup1\n    /* \"CrowdFunding.sol\":714:729  block.timestamp */\n  timestamp\n    /* \"CrowdFunding.sol\":714:741  block.timestamp + _deadline */\n  tag_6\n  swap2\n  swap1\n  tag_7\n  jump\t// in\ntag_6:\n    /* \"CrowdFunding.sol\":703:711  deadline */\n  0x03\n    /* \"CrowdFunding.sol\":703:741  deadline = block.timestamp + _deadline */\n  dup2\n  swap1\n  sstore\n  pop\n    /* \"CrowdFunding.sol\":770:777  100 wei */\n  0x64\n    /* \"CrowdFunding.sol\":752:767  minContribution */\n  0x02\n    /* \"CrowdFunding.sol\":752:777  minContribution = 100 wei */\n  dup2\n  swap1\n  sstore\n  pop\n    /* \"CrowdFunding.sol\":798:808  msg.sender */\n  caller\n    /* \"CrowdFunding.sol\":788:795  manager */\n  0x01\n  0x00\n    /* \"CrowdFunding.sol\":788:808  manager = msg.sender */\n  0x0100\n  exp\n  dup2\n  sload\n  dup2\n  0xffffffffffffffffffffffffffffffffffffffff\n  mul\n  not\n  and\n  swap1\n  dup4\n  0xffffffffffffffffffffffffffffffffffffffff\n  and\n  mul\n  or\n  swap1\n  sstore\n  pop\n    /* \"CrowdFunding.sol\":624:817  constructor(uint _target, uint _deadline){\r... */\n  pop\n  pop\n    /* \"CrowdFunding.sol\":74:2885  contract CrowdFunding {\r... */\n  jump(tag_8)\n    /* \"#utility.yul\":7:150   */\ntag_10:\n    /* \"#utility.yul\":64:69   */\n  0x00\n    /* \"#utility.yul\":95:101   */\n  dup2\n    /* \"#utility.yul\":89:102   */\n  mload\n    /* \"#utility.yul\":80:102   */\n  swap1\n  pop\n    /* \"#utility.yul\":111:144   */\n  tag_12\n    /* \"#utility.yul\":138:143   */\n  dup2\n    /* \"#utility.yul\":111:144   */\n  tag_13\n  jump\t// in\ntag_12:\n    /* \"#utility.yul\":7:150   */\n  swap3\n  swap2\n  pop\n  pop\n  jump\t// out\n    /* \"#utility.yul\":156:663   */\ntag_3:\n    /* \"#utility.yul\":235:241   */\n  0x00\n    /* \"#utility.yul\":243:249   */\n  dup1\n    /* \"#utility.yul\":292:294   */\n  0x40\n    /* \"#utility.yul\":280:289   */\n  dup4\n    /* \"#utility.yul\":271:278   */\n  dup6\n    /* \"#utility.yul\":267:290   */\n  sub\n    /* \"#utility.yul\":263:295   */\n  slt\n    /* \"#utility.yul\":260:379   */\n  iszero\n  tag_15\n  jumpi\n    /* \"#utility.yul\":298:377   */\n  tag_16\n  tag_17\n  jump\t// in\ntag_16:\n    /* \"#utility.yul\":260:379   */\ntag_15:\n    /* \"#utility.yul\":418:419   */\n  0x00\n    /* \"#utility.yul\":443:507   */\n  tag_18\n    /* \"#utility.yul\":499:506   */\n  dup6\n    /* \"#utility.yul\":490:496   */\n  dup3\n    /* \"#utility.yul\":479:488   */\n  dup7\n    /* \"#utility.yul\":475:497   */\n  add\n    /* \"#utility.yul\":443:507   */\n  tag_10\n  jump\t// in\ntag_18:\n    /* \"#utility.yul\":433:507   */\n  swap3\n  pop\n    /* \"#utility.yul\":389:517   */\n  pop\n    /* \"#utility.yul\":556:558   */\n  0x20\n    /* \"#utility.yul\":582:646   */\n  tag_19\n    /* \"#utility.yul\":638:645   */\n  dup6\n    /* \"#utility.yul\":629:635   */\n  dup3\n    /* \"#utility.yul\":618:627   */\n  dup7\n    /* \"#utility.yul\":614:636   */\n  add\n    /* \"#utility.yul\":582:646   */\n  tag_10\n  jump\t// in\ntag_19:\n    /* \"#utility.yul\":572:646   */\n  swap2\n  pop\n    /* \"#utility.yul\":527:656   */\n  pop\n    /* \"#utility.yul\":156:663   */\n  swap3\n  pop\n  swap3\n  swap1\n  pop\n  jump\t// out\n    /* \"#utility.yul\":750:1055   */\ntag_7:\n    /* \"#utility.yul\":790:793   */\n  0x00\n    /* \"#utility.yul\":809:829   */\n  tag_23\n    /* \"#utility.yul\":827:828   */\n  dup3\n    /* \"#utility.yul\":809:829   */\n  tag_24\n  jump\t// in\ntag_23:\n    /* \"#utility.yul\":804:829   */\n  swap2\n  pop\n    /* \"#utility.yul\":843:863   */\n  tag_25\n    /* \"#utility.yul\":861:862   */\n  dup4\n    /* \"#utility.yul\":843:863   */\n  tag_24\n  jump\t// in\ntag_25:\n    /* \"#utility.yul\":838:863   */\n  swap3\n  pop\n    /* \"#utility.yul\":997:998   */\n  dup3\n    /* \"#utility.yul\":929:995   */\n  0xffffffffffffffffffffffffffffffffffffffffffffffffffffffffffffffff\n    /* \"#utility.yul\":925:999   */\n  sub\n    /* \"#utility.yul\":922:923   */\n  dup3\n    /* \"#utility.yul\":919:1000   */\n  gt\n    /* \"#utility.yul\":916:1023   */\n  iszero\n  tag_26\n  jumpi\n    /* \"#utility.yul\":1003:1021   */\n  tag_27\n  tag_28\n  jump\t// in\ntag_27:\n    /* \"#utility.yul\":916:1023   */\ntag_26:\n    /* \"#utility.yul\":1047:1048   */\n  dup3\n    /* \"#utility.yul\":1044:1045   */\n  dup3\n    /* \"#utility.yul\":1040:1049   */\n  add\n    /* \"#utility.yul\":1033:1049   */\n  swap1\n  pop\n    /* \"#utility.yul\":750:1055   */\n  swap3\n  swap2\n  pop\n  pop\n  jump\t// out\n    /* \"#utility.yul\":1061:1138   */\ntag_24:\n    /* \"#utility.yul\":1098:1105   */\n  0x00\n    /* \"#utility.yul\":1127:1132   */\n  dup2\n    /* \"#utility.yul\":1116:1132   */\n  swap1\n  pop\n    /* \"#utility.yul\":1061:1138   */\n  swap2\n  swap1\n  pop\n  jump\t// out\n    /* \"#utility.yul\":1144:1324   */\ntag_28:\n    /* \"#utility.yul\":1192:1269   */\n  0x4e487b7100000000000000000000000000000000000000000000000000000000\n    /* \"#utility.yul\":1189:1190   */\n  0x00\n    /* \"#utility.yul\":1182:1270   */\n  mstore\n    /* \"#utility.yul\":1289:1293   */\n  0x11\n    /* \"#utility.yul\":1286:1287   */\n  0x04\n    /* \"#utility.yul\":1279:1294   */\n  mstore\n    /* \"#utility.yul\":1313:1317   */\n  0x24\n    /* \"#utility.yul\":1310:1311   */\n  0x00\n    /* \"#utility.yul\":1303:1318   */\n  revert\n    /* \"#utility.yul\":1453:1570   */\ntag_17:\n    /* \"#utility.yul\":1562:1563   */\n  0x00\n    /* \"#utility.yul\":1559:1560   */\n  dup1\n    /* \"#utility.yul\":1552:1564   */\n  revert\n    /* \"#utility.yul\":1576:1698   */\ntag_13:\n    /* \"#utility.yul\":1649:1673   */\n  tag_35\n    /* \"#utility.yul\":1667:1672   */\n  dup2\n    /* \"#utility.yul\":1649:1673   */\n  tag_24\n  jump\t// in\ntag_35:\n    /* \"#utility.yul\":1642:1647   */\n  dup2\n    /* \"#utility.yul\":1639:1674   */\n  eq\n    /* \"#utility.yul\":1629:1692   */\n  tag_36\n  jumpi\n    /* \"#utility.yul\":1688:1689   */\n  0x00\n    /* \"#utility.yul\":1685:1686   */\n  dup1\n    /* \"#utility.yul\":1678:1690   */\n  revert\n    /* \"#utility.yul\":1629:1692   */\ntag_36:\n    /* \"#utility.yul\":1576:1698   */\n  pop\n  jump\t// out\n    /* \"CrowdFunding.sol\":74:2885  contract CrowdFunding {\r... */\ntag_8:\n  dataSize(sub_0)\n  dup1\n  dataOffset(sub_0)\n  0x00\n  codecopy\n  0x00\n  return\nstop\n\nsub_0: assembly {\n        /* \"CrowdFunding.sol\":74:2885  contract CrowdFunding {\r... */\n      mstore(0x40, 0x80)\n      jumpi(tag_1, lt(calldatasize, 0x04))\n      shr(0xe0, calldataload(0x00))\n      dup1\n      0x5114cb52\n      gt\n      tag_17\n      jumpi\n      dup1\n      0x9fb42b1f\n      gt\n      tag_18\n      jumpi\n      dup1\n      0x9fb42b1f\n      eq\n      tag_13\n      jumpi\n      dup1\n      0xaaffadf3\n      eq\n      tag_14\n      jumpi\n      dup1\n      0xc59ee1dc\n      eq\n      tag_15\n      jumpi\n      dup1\n      0xd4b83992\n      eq\n      tag_16\n      jumpi\n      jump(tag_1)\n    tag_18:\n      dup1\n      0x5114cb52\n      eq\n      tag_9\n      jumpi\n      dup1\n      0x590e1ae3\n      eq\n      tag_10\n      jumpi\n      dup1\n      0x6f9fb98a\n      eq\n      tag_11\n      jumpi\n      dup1\n      0x81d12c58\n      eq\n      tag_12\n      jumpi\n      jump(tag_1)\n    tag_17:\n      dup1\n      0x3eb7647b\n      gt\n      tag_19\n      jumpi\n      dup1\n      0x3eb7647b\n      eq\n      tag_5\n      jumpi\n      dup1\n      0x481c6a75\n      eq\n      tag_6\n      jumpi\n      dup1\n      0x4cb6f4a5\n      eq\n      tag_7\n      jumpi\n      dup1\n      0x4e260f6f\n      eq\n      tag_8\n      jumpi\n      jump(tag_1)\n    tag_19:\n      dup1\n      0x06e99fef\n      eq\n      tag_2\n      jumpi\n      dup1\n      0x1f6d4942\n      eq\n      tag_3\n      jumpi\n      dup1\n      0x29dcb0cf\n      eq\n      tag_4\n      jumpi\n    tag_1:\n      0x00\n      dup1\n      revert\n        /* \"CrowdFunding.sol\":825:1193  function sendEth() public payable {\r... */\n    tag_2:\n      tag_20\n      tag_21\n      jump\t// in\n    tag_20:\n      stop\n        /* \"CrowdFunding.sol\":103:147  mapping(address => uint) public contributors */\n    tag_3:\n      callvalue\n      dup1\n      iszero\n      tag_22\n      jumpi\n      0x00\n      dup1\n      revert\n    tag_22:\n      pop\n      tag_23\n      0x04\n      dup1\n      calldatasize\n      sub\n      dup2\n      add\n      swap1\n      tag_24\n      swap2\n      swap1\n      tag_25\n      jump\t// in\n    tag_24:\n      tag_26\n      jump\t// in\n    tag_23:\n      mload(0x40)\n      tag_27\n      swap2\n      swap1\n      tag_28\n      jump\t// in\n    tag_27:\n      mload(0x40)\n      dup1\n      swap2\n      sub\n      swap1\n      return\n        /* \"CrowdFunding.sol\":217:237  uint public deadline */\n    tag_4:\n      callvalue\n      dup1\n      iszero\n      tag_29\n      jumpi\n      0x00\n      dup1\n      revert\n    tag_29:\n      pop\n      tag_30\n      tag_31\n      jump\t// in\n    tag_30:\n      mload(0x40)\n      tag_32\n      swap2\n      swap1\n      tag_28\n      jump\t// in\n    tag_32:\n      mload(0x40)\n      dup1\n      swap2\n      sub\n      swap1\n      return\n        /* \"CrowdFunding.sol\":1780:2189  function createRequests(string memory _description, address payable _recipient, uint _value) public onlyManager {\r... */\n    tag_5:\n      callvalue\n      dup1\n      iszero\n      tag_33\n      jumpi\n      0x00\n      dup1\n      revert\n    tag_33:\n      pop\n      tag_34\n      0x04\n      dup1\n      calldatasize\n      sub\n      dup2\n      add\n      swap1\n      tag_35\n      swap2\n      swap1\n      tag_36\n      jump\t// in\n    tag_35:\n      tag_37\n      jump\t// in\n    tag_34:\n      stop\n        /* \"CrowdFunding.sol\":154:176  address public manager */\n    tag_6:\n      callvalue\n      dup1\n      iszero\n      tag_38\n      jumpi\n      0x00\n      dup1\n      revert\n    tag_38:\n      pop\n      tag_39\n      tag_40\n      jump\t// in\n    tag_39:\n      mload(0x40)\n      tag_41\n      swap2\n      swap1\n      tag_42\n      jump\t// in\n    tag_41:\n      mload(0x40)\n      dup1\n      swap2\n      sub\n      swap1\n      return\n        /* \"CrowdFunding.sol\":2197:2552  function voteRequest(uint _requestNo) public {\r... */\n    tag_7:\n      callvalue\n      dup1\n      iszero\n      tag_43\n      jumpi\n      0x00\n      dup1\n      revert\n    tag_43:\n      pop\n      tag_44\n      0x04\n      dup1\n      calldatasize\n      sub\n      dup2\n      add\n      swap1\n      tag_45\n      swap2\n      swap1\n      tag_46\n      jump\t// in\n    tag_45:\n      tag_47\n      jump\t// in\n    tag_44:\n      stop\n        /* \"CrowdFunding.sol\":300:328  uint public noOfContributors */\n    tag_8:\n      callvalue\n      dup1\n      iszero\n      tag_48\n      jumpi\n      0x00\n      dup1\n      revert\n    tag_48:\n      pop\n      tag_49\n      tag_50\n      jump\t// in\n    tag_49:\n      mload(0x40)\n      tag_51\n      swap2\n      swap1\n      tag_28\n      jump\t// in\n    tag_51:\n      mload(0x40)\n      dup1\n      swap2\n      sub\n      swap1\n      return\n        /* \"CrowdFunding.sol\":2560:2882  function makePayment(uint _requestNo) public onlyManager {\r... */\n    tag_9:\n      callvalue\n      dup1\n      iszero\n      tag_52\n      jumpi\n      0x00\n      dup1\n      revert\n    tag_52:\n      pop\n      tag_53\n      0x04\n      dup1\n      calldatasize\n      sub\n      dup2\n      add\n      swap1\n      tag_54\n      swap2\n      swap1\n      tag_46\n      jump\t// in\n    tag_54:\n      tag_55\n      jump\t// in\n    tag_53:\n      stop\n        /* \"CrowdFunding.sol\":1312:1641  function refund() public {\r... */\n    tag_10:\n      callvalue\n      dup1\n      iszero\n      tag_56\n      jumpi\n      0x00\n      dup1\n      revert\n    tag_56:\n      pop\n      tag_57\n      tag_58\n      jump\t// in\n    tag_57:\n      stop\n        /* \"CrowdFunding.sol\":1201:1304  function getContractBalance() public view returns(uint) {\r... */\n    tag_11:\n      callvalue\n      dup1\n      iszero\n      tag_59\n      jumpi\n      0x00\n      dup1\n      revert\n    tag_59:\n      pop\n      tag_60\n      tag_61\n      jump\t// in\n    tag_60:\n      mload(0x40)\n      tag_62\n      swap2\n      swap1\n      tag_28\n      jump\t// in\n    tag_62:\n      mload(0x40)\n      dup1\n      swap2\n      sub\n      swap1\n      return\n        /* \"CrowdFunding.sol\":545:585  mapping(uint => Request) public requests */\n    tag_12:\n      callvalue\n      dup1\n      iszero\n      tag_63\n      jumpi\n      0x00\n      dup1\n      revert\n    tag_63:\n      pop\n      tag_64\n      0x04\n      dup1\n      calldatasize\n      sub\n      dup2\n      add\n      swap1\n      tag_65\n      swap2\n      swap1\n      tag_46\n      jump\t// in\n    tag_65:\n      tag_66\n      jump\t// in\n    tag_64:\n      mload(0x40)\n      tag_67\n      swap6\n      swap5\n      swap4\n      swap3\n      swap2\n      swap1\n      tag_68\n      jump\t// in\n    tag_67:\n      mload(0x40)\n      dup1\n      swap2\n      sub\n      swap1\n      return\n        /* \"CrowdFunding.sol\":592:615  uint public numRequests */\n    tag_13:\n      callvalue\n      dup1\n      iszero\n      tag_69\n      jumpi\n      0x00\n      dup1\n      revert\n    tag_69:\n      pop\n      tag_70\n      tag_71\n      jump\t// in\n    tag_70:\n      mload(0x40)\n      tag_72\n      swap2\n      swap1\n      tag_28\n      jump\t// in\n    tag_72:\n      mload(0x40)\n      dup1\n      swap2\n      sub\n      swap1\n      return\n        /* \"CrowdFunding.sol\":183:210  uint public minContribution */\n    tag_14:\n      callvalue\n      dup1\n      iszero\n      tag_73\n      jumpi\n      0x00\n      dup1\n      revert\n    tag_73:\n      pop\n      tag_74\n      tag_75\n      jump\t// in\n    tag_74:\n      mload(0x40)\n      tag_76\n      swap2\n      swap1\n      tag_28\n      jump\t// in\n    tag_76:\n      mload(0x40)\n      dup1\n      swap2\n      sub\n      swap1\n      return\n        /* \"CrowdFunding.sol\":269:293  uint public raisedAmount */\n    tag_15:\n      callvalue\n      dup1\n      iszero\n      tag_77\n      jumpi\n      0x00\n      dup1\n      revert\n    tag_77:\n      pop\n      tag_78\n      tag_79\n      jump\t// in\n    tag_78:\n      mload(0x40)\n      tag_80\n      swap2\n      swap1\n      tag_28\n      jump\t// in\n    tag_80:\n      mload(0x40)\n      dup1\n      swap2\n      sub\n      swap1\n      return\n        /* \"CrowdFunding.sol\":244:262  uint public target */\n    tag_16:\n      callvalue\n      dup1\n      iszero\n      tag_81\n      jumpi\n      0x00\n      dup1\n      revert\n    tag_81:\n      pop\n      tag_82\n      tag_83\n      jump\t// in\n    tag_82:\n      mload(0x40)\n      tag_84\n      swap2\n      swap1\n      tag_28\n      jump\t// in\n    tag_84:\n      mload(0x40)\n      dup1\n      swap2\n      sub\n      swap1\n      return\n        /* \"CrowdFunding.sol\":825:1193  function sendEth() public payable {\r... */\n    tag_21:\n        /* \"CrowdFunding.sol\":896:904  deadline */\n      sload(0x03)\n        /* \"CrowdFunding.sol\":878:893  block.timestamp */\n      timestamp\n        /* \"CrowdFunding.sol\":878:904  block.timestamp < deadline */\n      lt\n        /* \"CrowdFunding.sol\":870:928  require(block.timestamp < deadline, \"Deadline has passed\") */\n      tag_86\n      jumpi\n      mload(0x40)\n      0x08c379a000000000000000000000000000000000000000000000000000000000\n      dup2\n      mstore\n      0x04\n      add\n      tag_87\n      swap1\n      tag_88\n      jump\t// in\n    tag_87:\n      mload(0x40)\n      dup1\n      swap2\n      sub\n      swap1\n      revert\n    tag_86:\n        /* \"CrowdFunding.sol\":960:975  minContribution */\n      sload(0x02)\n        /* \"CrowdFunding.sol\":947:956  msg.value */\n      callvalue\n        /* \"CrowdFunding.sol\":947:975  msg.value >= minContribution */\n      lt\n      iszero\n        /* \"CrowdFunding.sol\":939:1011  require(msg.value >= minContribution, \"Minimum contribution is not met\") */\n      tag_89\n      jumpi\n      mload(0x40)\n      0x08c379a000000000000000000000000000000000000000000000000000000000\n      dup2\n      mstore\n      0x04\n      add\n      tag_90\n      swap1\n      tag_91\n      jump\t// in\n    tag_90:\n      mload(0x40)\n      dup1\n      swap2\n      sub\n      swap1\n      revert\n    tag_89:\n        /* \"CrowdFunding.sol\":1055:1056  0 */\n      0x00\n        /* \"CrowdFunding.sol\":1027:1039  contributors */\n      dup1\n        /* \"CrowdFunding.sol\":1027:1051  contributors[msg.sender] */\n      0x00\n        /* \"CrowdFunding.sol\":1040:1050  msg.sender */\n      caller\n        /* \"CrowdFunding.sol\":1027:1051  contributors[msg.sender] */\n      0xffffffffffffffffffffffffffffffffffffffff\n      and\n      0xffffffffffffffffffffffffffffffffffffffff\n      and\n      dup2\n      mstore\n      0x20\n      add\n      swap1\n      dup2\n      mstore\n      0x20\n      add\n      0x00\n      keccak256\n      sload\n        /* \"CrowdFunding.sol\":1027:1056  contributors[msg.sender] == 0 */\n      eq\n        /* \"CrowdFunding.sol\":1024:1102  if(contributors[msg.sender] == 0){\r... */\n      iszero\n      tag_92\n      jumpi\n        /* \"CrowdFunding.sol\":1072:1088  noOfContributors */\n      0x06\n      0x00\n        /* \"CrowdFunding.sol\":1072:1090  noOfContributors++ */\n      dup2\n      sload\n      dup1\n      swap3\n      swap2\n      swap1\n      tag_93\n      swap1\n      tag_94\n      jump\t// in\n    tag_93:\n      swap2\n      swap1\n      pop\n      sstore\n      pop\n        /* \"CrowdFunding.sol\":1024:1102  if(contributors[msg.sender] == 0){\r... */\n    tag_92:\n        /* \"CrowdFunding.sol\":1140:1149  msg.value */\n      callvalue\n        /* \"CrowdFunding.sol\":1112:1124  contributors */\n      0x00\n        /* \"CrowdFunding.sol\":1112:1136  contributors[msg.sender] */\n      dup1\n        /* \"CrowdFunding.sol\":1125:1135  msg.sender */\n      caller\n        /* \"CrowdFunding.sol\":1112:1136  contributors[msg.sender] */\n      0xffffffffffffffffffffffffffffffffffffffff\n      and\n      0xffffffffffffffffffffffffffffffffffffffff\n      and\n      dup2\n      mstore\n      0x20\n      add\n      swap1\n      dup2\n      mstore\n      0x20\n      add\n      0x00\n      keccak256\n      0x00\n        /* \"CrowdFunding.sol\":1112:1149  contributors[msg.sender] += msg.value */\n      dup3\n      dup3\n      sload\n      tag_95\n      swap2\n      swap1\n      tag_96\n      jump\t// in\n    tag_95:\n      swap3\n      pop\n      pop\n      dup2\n      swap1\n      sstore\n      pop\n        /* \"CrowdFunding.sol\":1176:1185  msg.value */\n      callvalue\n        /* \"CrowdFunding.sol\":1160:1172  raisedAmount */\n      0x05\n      0x00\n        /* \"CrowdFunding.sol\":1160:1185  raisedAmount += msg.value */\n      dup3\n      dup3\n      sload\n      tag_97\n      swap2\n      swap1\n      tag_96\n      jump\t// in\n    tag_97:\n      swap3\n      pop\n      pop\n      dup2\n      swap1\n      sstore\n      pop\n        /* \"CrowdFunding.sol\":825:1193  function sendEth() public payable {\r... */\n      jump\t// out\n        /* \"CrowdFunding.sol\":103:147  mapping(address => uint) public contributors */\n    tag_26:\n      mstore(0x20, 0x00)\n      dup1\n      0x00\n      mstore\n      keccak256(0x00, 0x40)\n      0x00\n      swap2\n      pop\n      swap1\n      pop\n      sload\n      dup2\n      jump\t// out\n        /* \"CrowdFunding.sol\":217:237  uint public deadline */\n    tag_31:\n      sload(0x03)\n      dup2\n      jump\t// out\n        /* \"CrowdFunding.sol\":1780:2189  function createRequests(string memory _description, address payable _recipient, uint _value) public onlyManager {\r... */\n    tag_37:\n        /* \"CrowdFunding.sol\":1705:1712  manager */\n      0x01\n      0x00\n      swap1\n      sload\n      swap1\n      0x0100\n      exp\n      swap1\n      div\n      0xffffffffffffffffffffffffffffffffffffffff\n      and\n        /* \"CrowdFunding.sol\":1691:1712  msg.sender == manager */\n      0xffffffffffffffffffffffffffffffffffffffff\n      and\n        /* \"CrowdFunding.sol\":1691:1701  msg.sender */\n      caller\n        /* \"CrowdFunding.sol\":1691:1712  msg.sender == manager */\n      0xffffffffffffffffffffffffffffffffffffffff\n      and\n      eq\n        /* \"CrowdFunding.sol\":1683:1752  require(msg.sender == manager, \"Only manager can call this function\") */\n      tag_99\n      jumpi\n      mload(0x40)\n      0x08c379a000000000000000000000000000000000000000000000000000000000\n      dup2\n      mstore\n      0x04\n      add\n      tag_100\n      swap1\n      tag_101\n      jump\t// in\n    tag_100:\n      mload(0x40)\n      dup1\n      swap2\n      sub\n      swap1\n      revert\n    tag_99:\n        /* \"CrowdFunding.sol\":1903:1929  Request storage newRequest */\n      0x00\n        /* \"CrowdFunding.sol\":1932:1940  requests */\n      0x07\n        /* \"CrowdFunding.sol\":1932:1953  requests[numRequests] */\n      0x00\n        /* \"CrowdFunding.sol\":1941:1952  numRequests */\n      sload(0x08)\n        /* \"CrowdFunding.sol\":1932:1953  requests[numRequests] */\n      dup2\n      mstore\n      0x20\n      add\n      swap1\n      dup2\n      mstore\n      0x20\n      add\n      0x00\n      keccak256\n        /* \"CrowdFunding.sol\":1903:1953  Request storage newRequest = requests[numRequests] */\n      swap1\n      pop\n        /* \"CrowdFunding.sol\":1964:1975  numRequests */\n      0x08\n      0x00\n        /* \"CrowdFunding.sol\":1964:1977  numRequests++ */\n      dup2\n      sload\n      dup1\n      swap3\n      swap2\n      swap1\n      tag_103\n      swap1\n      tag_94\n      jump\t// in\n    tag_103:\n      swap2\n      swap1\n      pop\n      sstore\n      pop\n        /* \"CrowdFunding.sol\":2013:2025  _description */\n      dup4\n        /* \"CrowdFunding.sol\":1988:1998  newRequest */\n      dup2\n        /* \"CrowdFunding.sol\":1988:2010  newRequest.description */\n      0x00\n      add\n        /* \"CrowdFunding.sol\":1988:2025  newRequest.description = _description */\n      swap1\n      dup1\n      mload\n      swap1\n      0x20\n      add\n      swap1\n      tag_104\n      swap3\n      swap2\n      swap1\n      tag_105\n      jump\t// in\n    tag_104:\n      pop\n        /* \"CrowdFunding.sol\":2059:2069  _recipient */\n      dup3\n        /* \"CrowdFunding.sol\":2036:2046  newRequest */\n      dup2\n        /* \"CrowdFunding.sol\":2036:2056  newRequest.recipient */\n      0x01\n      add\n      0x00\n        /* \"CrowdFunding.sol\":2036:2069  newRequest.recipient = _recipient */\n      0x0100\n      exp\n      dup2\n      sload\n      dup2\n      0xffffffffffffffffffffffffffffffffffffffff\n      mul\n      not\n      and\n      swap1\n      dup4\n      0xffffffffffffffffffffffffffffffffffffffff\n      and\n      mul\n      or\n      swap1\n      sstore\n      pop\n        /* \"CrowdFunding.sol\":2099:2105  _value */\n      dup2\n        /* \"CrowdFunding.sol\":2080:2090  newRequest */\n      dup2\n        /* \"CrowdFunding.sol\":2080:2096  newRequest.value */\n      0x02\n      add\n        /* \"CrowdFunding.sol\":2080:2105  newRequest.value = _value */\n      dup2\n      swap1\n      sstore\n      pop\n        /* \"CrowdFunding.sol\":2139:2144  false */\n      0x00\n        /* \"CrowdFunding.sol\":2116:2126  newRequest */\n      dup2\n        /* \"CrowdFunding.sol\":2116:2136  newRequest.completed */\n      0x03\n      add\n      0x00\n        /* \"CrowdFunding.sol\":2116:2144  newRequest.completed = false */\n      0x0100\n      exp\n      dup2\n      sload\n      dup2\n      0xff\n      mul\n      not\n      and\n      swap1\n      dup4\n      iszero\n      iszero\n      mul\n      or\n      swap1\n      sstore\n      pop\n        /* \"CrowdFunding.sol\":2179:2180  0 */\n      0x00\n        /* \"CrowdFunding.sol\":2155:2165  newRequest */\n      dup2\n        /* \"CrowdFunding.sol\":2155:2176  newRequest.noOfVoters */\n      0x04\n      add\n        /* \"CrowdFunding.sol\":2155:2180  newRequest.noOfVoters = 0 */\n      dup2\n      swap1\n      sstore\n      pop\n        /* \"CrowdFunding.sol\":1892:2189  {\r... */\n      pop\n        /* \"CrowdFunding.sol\":1780:2189  function createRequests(string memory _description, address payable _recipient, uint _value) public onlyManager {\r... */\n      pop\n      pop\n      pop\n      jump\t// out\n        /* \"CrowdFunding.sol\":154:176  address public manager */\n    tag_40:\n      0x01\n      0x00\n      swap1\n      sload\n      swap1\n      0x0100\n      exp\n      swap1\n      div\n      0xffffffffffffffffffffffffffffffffffffffff\n      and\n      dup2\n      jump\t// out\n        /* \"CrowdFunding.sol\":2197:2552  function voteRequest(uint _requestNo) public {\r... */\n    tag_47:\n        /* \"CrowdFunding.sol\":2288:2289  0 */\n      0x00\n        /* \"CrowdFunding.sol\":2261:2273  contributors */\n      dup1\n        /* \"CrowdFunding.sol\":2261:2285  contributors[msg.sender] */\n      0x00\n        /* \"CrowdFunding.sol\":2274:2284  msg.sender */\n      caller\n        /* \"CrowdFunding.sol\":2261:2285  contributors[msg.sender] */\n      0xffffffffffffffffffffffffffffffffffffffff\n      and\n      0xffffffffffffffffffffffffffffffffffffffff\n      and\n      dup2\n      mstore\n      0x20\n      add\n      swap1\n      dup2\n      mstore\n      0x20\n      add\n      0x00\n      keccak256\n      sload\n        /* \"CrowdFunding.sol\":2261:2289  contributors[msg.sender] > 0 */\n      gt\n        /* \"CrowdFunding.sol\":2253:2319  require(contributors[msg.sender] > 0, \"You must be a contributor\") */\n      tag_107\n      jumpi\n      mload(0x40)\n      0x08c379a000000000000000000000000000000000000000000000000000000000\n      dup2\n      mstore\n      0x04\n      add\n      tag_108\n      swap1\n      tag_109\n      jump\t// in\n    tag_108:\n      mload(0x40)\n      dup1\n      swap2\n      sub\n      swap1\n      revert\n    tag_107:\n        /* \"CrowdFunding.sol\":2330:2356  Request storage curRequest */\n      0x00\n        /* \"CrowdFunding.sol\":2359:2367  requests */\n      0x07\n        /* \"CrowdFunding.sol\":2359:2379  requests[_requestNo] */\n      0x00\n        /* \"CrowdFunding.sol\":2368:2378  _requestNo */\n      dup4\n        /* \"CrowdFunding.sol\":2359:2379  requests[_requestNo] */\n      dup2\n      mstore\n      0x20\n      add\n      swap1\n      dup2\n      mstore\n      0x20\n      add\n      0x00\n      keccak256\n        /* \"CrowdFunding.sol\":2330:2379  Request storage curRequest = requests[_requestNo] */\n      swap1\n      pop\n        /* \"CrowdFunding.sol\":2431:2436  false */\n      0x00\n        /* \"CrowdFunding.sol\":2398:2436  curRequest.voters[msg.sender] == false */\n      iszero\n      iszero\n        /* \"CrowdFunding.sol\":2398:2408  curRequest */\n      dup2\n        /* \"CrowdFunding.sol\":2398:2415  curRequest.voters */\n      0x05\n      add\n        /* \"CrowdFunding.sol\":2398:2427  curRequest.voters[msg.sender] */\n      0x00\n        /* \"CrowdFunding.sol\":2416:2426  msg.sender */\n      caller\n        /* \"CrowdFunding.sol\":2398:2427  curRequest.voters[msg.sender] */\n      0xffffffffffffffffffffffffffffffffffffffff\n      and\n      0xffffffffffffffffffffffffffffffffffffffff\n      and\n      dup2\n      mstore\n      0x20\n      add\n      swap1\n      dup2\n      mstore\n      0x20\n      add\n      0x00\n      keccak256\n      0x00\n      swap1\n      sload\n      swap1\n      0x0100\n      exp\n      swap1\n      div\n      0xff\n      and\n        /* \"CrowdFunding.sol\":2398:2436  curRequest.voters[msg.sender] == false */\n      iszero\n      iszero\n      eq\n        /* \"CrowdFunding.sol\":2390:2463  require(curRequest.voters[msg.sender] == false, \"You have already voted\") */\n      tag_110\n      jumpi\n      mload(0x40)\n      0x08c379a000000000000000000000000000000000000000000000000000000000\n      dup2\n      mstore\n      0x04\n      add\n      tag_111\n      swap1\n      tag_112\n      jump\t// in\n    tag_111:\n      mload(0x40)\n      dup1\n      swap2\n      sub\n      swap1\n      revert\n    tag_110:\n        /* \"CrowdFunding.sol\":2506:2510  true */\n      0x01\n        /* \"CrowdFunding.sol\":2474:2484  curRequest */\n      dup2\n        /* \"CrowdFunding.sol\":2474:2491  curRequest.voters */\n      0x05\n      add\n        /* \"CrowdFunding.sol\":2474:2503  curRequest.voters[msg.sender] */\n      0x00\n        /* \"CrowdFunding.sol\":2492:2502  msg.sender */\n      caller\n        /* \"CrowdFunding.sol\":2474:2503  curRequest.voters[msg.sender] */\n      0xffffffffffffffffffffffffffffffffffffffff\n      and\n      0xffffffffffffffffffffffffffffffffffffffff\n      and\n      dup2\n      mstore\n      0x20\n      add\n      swap1\n      dup2\n      mstore\n      0x20\n      add\n      0x00\n      keccak256\n      0x00\n        /* \"CrowdFunding.sol\":2474:2510  curRequest.voters[msg.sender] = true */\n      0x0100\n      exp\n      dup2\n      sload\n      dup2\n      0xff\n      mul\n      not\n      and\n      swap1\n      dup4\n      iszero\n      iszero\n      mul\n      or\n      swap1\n      sstore\n      pop\n        /* \"CrowdFunding.sol\":2521:2531  curRequest */\n      dup1\n        /* \"CrowdFunding.sol\":2521:2542  curRequest.noOfVoters */\n      0x04\n      add\n      0x00\n        /* \"CrowdFunding.sol\":2521:2544  curRequest.noOfVoters++ */\n      dup2\n      sload\n      dup1\n      swap3\n      swap2\n      swap1\n      tag_113\n      swap1\n      tag_94\n      jump\t// in\n    tag_113:\n      swap2\n      swap1\n      pop\n      sstore\n      pop\n        /* \"CrowdFunding.sol\":2242:2552  {\r... */\n      pop\n        /* \"CrowdFunding.sol\":2197:2552  function voteRequest(uint _requestNo) public {\r... */\n      pop\n      jump\t// out\n        /* \"CrowdFunding.sol\":300:328  uint public noOfContributors */\n    tag_50:\n      sload(0x06)\n      dup2\n      jump\t// out\n        /* \"CrowdFunding.sol\":2560:2882  function makePayment(uint _requestNo) public onlyManager {\r... */\n    tag_55:\n        /* \"CrowdFunding.sol\":1705:1712  manager */\n      0x01\n      0x00\n      swap1\n      sload\n      swap1\n      0x0100\n      exp\n      swap1\n      div\n      0xffffffffffffffffffffffffffffffffffffffff\n      and\n        /* \"CrowdFunding.sol\":1691:1712  msg.sender == manager */\n      0xffffffffffffffffffffffffffffffffffffffff\n      and\n        /* \"CrowdFunding.sol\":1691:1701  msg.sender */\n      caller\n        /* \"CrowdFunding.sol\":1691:1712  msg.sender == manager */\n      0xffffffffffffffffffffffffffffffffffffffff\n      and\n      eq\n        /* \"CrowdFunding.sol\":1683:1752  require(msg.sender == manager, \"Only manager can call this function\") */\n      tag_115\n      jumpi\n      mload(0x40)\n      0x08c379a000000000000000000000000000000000000000000000000000000000\n      dup2\n      mstore\n      0x04\n      add\n      tag_116\n      swap1\n      tag_101\n      jump\t// in\n    tag_116:\n      mload(0x40)\n      dup1\n      swap2\n      sub\n      swap1\n      revert\n    tag_115:\n        /* \"CrowdFunding.sol\":2652:2658  target */\n      sload(0x04)\n        /* \"CrowdFunding.sol\":2636:2648  raisedAmount */\n      sload(0x05)\n        /* \"CrowdFunding.sol\":2636:2658  raisedAmount >= target */\n      lt\n      iszero\n        /* \"CrowdFunding.sol\":2628:2659  require(raisedAmount >= target) */\n      tag_118\n      jumpi\n      0x00\n      dup1\n      revert\n    tag_118:\n        /* \"CrowdFunding.sol\":2670:2696  Request storage curRequest */\n      0x00\n        /* \"CrowdFunding.sol\":2699:2707  requests */\n      0x07\n        /* \"CrowdFunding.sol\":2699:2719  requests[_requestNo] */\n      0x00\n        /* \"CrowdFunding.sol\":2708:2718  _requestNo */\n      dup4\n        /* \"CrowdFunding.sol\":2699:2719  requests[_requestNo] */\n      dup2\n      mstore\n      0x20\n      add\n      swap1\n      dup2\n      mstore\n      0x20\n      add\n      0x00\n      keccak256\n        /* \"CrowdFunding.sol\":2670:2719  Request storage curRequest = requests[_requestNo] */\n      swap1\n      pop\n        /* \"CrowdFunding.sol\":2762:2767  false */\n      0x00\n        /* \"CrowdFunding.sol\":2738:2767  curRequest.completed == false */\n      iszero\n      iszero\n        /* \"CrowdFunding.sol\":2738:2748  curRequest */\n      dup2\n        /* \"CrowdFunding.sol\":2738:2758  curRequest.completed */\n      0x03\n      add\n      0x00\n      swap1\n      sload\n      swap1\n      0x0100\n      exp\n      swap1\n      div\n      0xff\n      and\n        /* \"CrowdFunding.sol\":2738:2767  curRequest.completed == false */\n      iszero\n      iszero\n      eq\n        /* \"CrowdFunding.sol\":2730:2802  require(curRequest.completed == false, \"The request has been completed\") */\n      tag_119\n      jumpi\n      mload(0x40)\n      0x08c379a000000000000000000000000000000000000000000000000000000000\n      dup2\n      mstore\n      0x04\n      add\n      tag_120\n      swap1\n      tag_121\n      jump\t// in\n    tag_120:\n      mload(0x40)\n      dup1\n      swap2\n      sub\n      swap1\n      revert\n    tag_119:\n        /* \"CrowdFunding.sol\":2862:2863  2 */\n      0x02\n        /* \"CrowdFunding.sol\":2845:2861  noOfContributors */\n      sload(0x06)\n        /* \"CrowdFunding.sol\":2845:2863  noOfContributors/2 */\n      tag_122\n      swap2\n      swap1\n      tag_123\n      jump\t// in\n    tag_122:\n        /* \"CrowdFunding.sol\":2821:2831  curRequest */\n      dup2\n        /* \"CrowdFunding.sol\":2821:2842  curRequest.noOfVoters */\n      0x04\n      add\n      sload\n        /* \"CrowdFunding.sol\":2821:2863  curRequest.noOfVoters > noOfContributors/2 */\n      gt\n        /* \"CrowdFunding.sol\":2813:2864  require(curRequest.noOfVoters > noOfContributors/2) */\n      tag_124\n      jumpi\n      0x00\n      dup1\n      revert\n    tag_124:\n        /* \"CrowdFunding.sol\":2617:2882  {\r... */\n      pop\n        /* \"CrowdFunding.sol\":2560:2882  function makePayment(uint _requestNo) public onlyManager {\r... */\n      pop\n      jump\t// out\n        /* \"CrowdFunding.sol\":1312:1641  function refund() public {\r... */\n    tag_58:\n        /* \"CrowdFunding.sol\":1374:1382  deadline */\n      sload(0x03)\n        /* \"CrowdFunding.sol\":1356:1371  block.timestamp */\n      timestamp\n        /* \"CrowdFunding.sol\":1356:1382  block.timestamp > deadline */\n      gt\n        /* \"CrowdFunding.sol\":1356:1407  block.timestamp > deadline && raisedAmount < target */\n      dup1\n      iszero\n      tag_126\n      jumpi\n      pop\n        /* \"CrowdFunding.sol\":1401:1407  target */\n      sload(0x04)\n        /* \"CrowdFunding.sol\":1386:1398  raisedAmount */\n      sload(0x05)\n        /* \"CrowdFunding.sol\":1386:1407  raisedAmount < target */\n      lt\n        /* \"CrowdFunding.sol\":1356:1407  block.timestamp > deadline && raisedAmount < target */\n    tag_126:\n        /* \"CrowdFunding.sol\":1348:1443  require(block.timestamp > deadline && raisedAmount < target, \"You are not eligible for refund\") */\n      tag_127\n      jumpi\n      mload(0x40)\n      0x08c379a000000000000000000000000000000000000000000000000000000000\n      dup2\n      mstore\n      0x04\n      add\n      tag_128\n      swap1\n      tag_129\n      jump\t// in\n    tag_128:\n      mload(0x40)\n      dup1\n      swap2\n      sub\n      swap1\n      revert\n    tag_127:\n        /* \"CrowdFunding.sol\":1489:1490  0 */\n      0x00\n        /* \"CrowdFunding.sol\":1462:1474  contributors */\n      dup1\n        /* \"CrowdFunding.sol\":1462:1486  contributors[msg.sender] */\n      0x00\n        /* \"CrowdFunding.sol\":1475:1485  msg.sender */\n      caller\n        /* \"CrowdFunding.sol\":1462:1486  contributors[msg.sender] */\n      0xffffffffffffffffffffffffffffffffffffffff\n      and\n      0xffffffffffffffffffffffffffffffffffffffff\n      and\n      dup2\n      mstore\n      0x20\n      add\n      swap1\n      dup2\n      mstore\n      0x20\n      add\n      0x00\n      keccak256\n      sload\n        /* \"CrowdFunding.sol\":1462:1490  contributors[msg.sender] > 0 */\n      gt\n        /* \"CrowdFunding.sol\":1454:1491  require(contributors[msg.sender] > 0) */\n      tag_130\n      jumpi\n      0x00\n      dup1\n      revert\n    tag_130:\n        /* \"CrowdFunding.sol\":1502:1522  address payable user */\n      0x00\n        /* \"CrowdFunding.sol\":1533:1543  msg.sender */\n      caller\n        /* \"CrowdFunding.sol\":1502:1544  address payable user = payable(msg.sender) */\n      swap1\n      pop\n        /* \"CrowdFunding.sol\":1555:1559  user */\n      dup1\n        /* \"CrowdFunding.sol\":1555:1568  user.transfer */\n      0xffffffffffffffffffffffffffffffffffffffff\n      and\n        /* \"CrowdFunding.sol\":1555:1594  user.transfer(contributors[msg.sender]) */\n      0x08fc\n        /* \"CrowdFunding.sol\":1569:1581  contributors */\n      0x00\n        /* \"CrowdFunding.sol\":1569:1593  contributors[msg.sender] */\n      dup1\n        /* \"CrowdFunding.sol\":1582:1592  msg.sender */\n      caller\n        /* \"CrowdFunding.sol\":1569:1593  contributors[msg.sender] */\n      0xffffffffffffffffffffffffffffffffffffffff\n      and\n      0xffffffffffffffffffffffffffffffffffffffff\n      and\n      dup2\n      mstore\n      0x20\n      add\n      swap1\n      dup2\n      mstore\n      0x20\n      add\n      0x00\n      keccak256\n      sload\n        /* \"CrowdFunding.sol\":1555:1594  user.transfer(contributors[msg.sender]) */\n      swap1\n      dup2\n      iszero\n      mul\n      swap1\n      mload(0x40)\n      0x00\n      mload(0x40)\n      dup1\n      dup4\n      sub\n      dup2\n      dup6\n      dup9\n      dup9\n      call\n      swap4\n      pop\n      pop\n      pop\n      pop\n      iszero\n      dup1\n      iszero\n      tag_132\n      jumpi\n      returndatasize\n      0x00\n      dup1\n      returndatacopy\n      revert(0x00, returndatasize)\n    tag_132:\n      pop\n        /* \"CrowdFunding.sol\":1632:1633  0 */\n      0x00\n        /* \"CrowdFunding.sol\":1605:1617  contributors */\n      dup1\n        /* \"CrowdFunding.sol\":1605:1629  contributors[msg.sender] */\n      0x00\n        /* \"CrowdFunding.sol\":1618:1628  msg.sender */\n      caller\n        /* \"CrowdFunding.sol\":1605:1629  contributors[msg.sender] */\n      0xffffffffffffffffffffffffffffffffffffffff\n      and\n      0xffffffffffffffffffffffffffffffffffffffff\n      and\n      dup2\n      mstore\n      0x20\n      add\n      swap1\n      dup2\n      mstore\n      0x20\n      add\n      0x00\n      keccak256\n        /* \"CrowdFunding.sol\":1605:1633  contributors[msg.sender] = 0 */\n      dup2\n      swap1\n      sstore\n      pop\n        /* \"CrowdFunding.sol\":1337:1641  {\r... */\n      pop\n        /* \"CrowdFunding.sol\":1312:1641  function refund() public {\r... */\n      jump\t// out\n        /* \"CrowdFunding.sol\":1201:1304  function getContractBalance() public view returns(uint) {\r... */\n    tag_61:\n        /* \"CrowdFunding.sol\":1251:1255  uint */\n      0x00\n        /* \"CrowdFunding.sol\":1275:1296  address(this).balance */\n      selfbalance\n        /* \"CrowdFunding.sol\":1268:1296  return address(this).balance */\n      swap1\n      pop\n        /* \"CrowdFunding.sol\":1201:1304  function getContractBalance() public view returns(uint) {\r... */\n      swap1\n      jump\t// out\n        /* \"CrowdFunding.sol\":545:585  mapping(uint => Request) public requests */\n    tag_66:\n      mstore(0x20, 0x07)\n      dup1\n      0x00\n      mstore\n      keccak256(0x00, 0x40)\n      0x00\n      swap2\n      pop\n      swap1\n      pop\n      dup1\n      0x00\n      add\n      dup1\n      sload\n      tag_134\n      swap1\n      tag_135\n      jump\t// in\n    tag_134:\n      dup1\n      0x1f\n      add\n      0x20\n      dup1\n      swap2\n      div\n      mul\n      0x20\n      add\n      mload(0x40)\n      swap1\n      dup2\n      add\n      0x40\n      mstore\n      dup1\n      swap3\n      swap2\n      swap1\n      dup2\n      dup2\n      mstore\n      0x20\n      add\n      dup3\n      dup1\n      sload\n      tag_136\n      swap1\n      tag_135\n      jump\t// in\n    tag_136:\n      dup1\n      iszero\n      tag_137\n      jumpi\n      dup1\n      0x1f\n      lt\n      tag_138\n      jumpi\n      0x0100\n      dup1\n      dup4\n      sload\n      div\n      mul\n      dup4\n      mstore\n      swap2\n      0x20\n      add\n      swap2\n      jump(tag_137)\n    tag_138:\n      dup3\n      add\n      swap2\n      swap1\n      0x00\n      mstore\n      keccak256(0x00, 0x20)\n      swap1\n    tag_139:\n      dup2\n      sload\n      dup2\n      mstore\n      swap1\n      0x01\n      add\n      swap1\n      0x20\n      add\n      dup1\n      dup4\n      gt\n      tag_139\n      jumpi\n      dup3\n      swap1\n      sub\n      0x1f\n      and\n      dup3\n      add\n      swap2\n    tag_137:\n      pop\n      pop\n      pop\n      pop\n      pop\n      swap1\n      dup1\n      0x01\n      add\n      0x00\n      swap1\n      sload\n      swap1\n      0x0100\n      exp\n      swap1\n      div\n      0xffffffffffffffffffffffffffffffffffffffff\n      and\n      swap1\n      dup1\n      0x02\n      add\n      sload\n      swap1\n      dup1\n      0x03\n      add\n      0x00\n      swap1\n      sload\n      swap1\n      0x0100\n      exp\n      swap1\n      div\n      0xff\n      and\n      swap1\n      dup1\n      0x04\n      add\n      sload\n      swap1\n      pop\n      dup6\n      jump\t// out\n        /* \"CrowdFunding.sol\":592:615  uint public numRequests */\n    tag_71:\n      sload(0x08)\n      dup2\n      jump\t// out\n        /* \"CrowdFunding.sol\":183:210  uint public minContribution */\n    tag_75:\n      sload(0x02)\n      dup2\n      jump\t// out\n        /* \"CrowdFunding.sol\":269:293  uint public raisedAmount */\n    tag_79:\n      sload(0x05)\n      dup2\n      jump\t// out\n        /* \"CrowdFunding.sol\":244:262  uint public target */\n    tag_83:\n      sload(0x04)\n      dup2\n      jump\t// out\n    tag_105:\n      dup3\n      dup1\n      sload\n      tag_140\n      swap1\n      tag_135\n      jump\t// in\n    tag_140:\n      swap1\n      0x00\n      mstore\n      keccak256(0x00, 0x20)\n      swap1\n      0x1f\n      add\n      0x20\n      swap1\n      div\n      dup2\n      add\n      swap3\n      dup3\n      tag_142\n      jumpi\n      0x00\n      dup6\n      sstore\n      jump(tag_141)\n    tag_142:\n      dup3\n      0x1f\n      lt\n      tag_143\n      jumpi\n      dup1\n      mload\n      not(0xff)\n      and\n      dup4\n      dup1\n      add\n      or\n      dup6\n      sstore\n      jump(tag_141)\n    tag_143:\n      dup3\n      dup1\n      add\n      0x01\n      add\n      dup6\n      sstore\n      dup3\n      iszero\n      tag_141\n      jumpi\n      swap2\n      dup3\n      add\n    tag_144:\n      dup3\n      dup2\n      gt\n      iszero\n      tag_145\n      jumpi\n      dup3\n      mload\n      dup3\n      sstore\n      swap2\n      0x20\n      add\n      swap2\n      swap1\n      0x01\n      add\n      swap1\n      jump(tag_144)\n    tag_145:\n    tag_141:\n      pop\n      swap1\n      pop\n      tag_146\n      swap2\n      swap1\n      tag_147\n      jump\t// in\n    tag_146:\n      pop\n      swap1\n      jump\t// out\n    tag_147:\n    tag_148:\n      dup1\n      dup3\n      gt\n      iszero\n      tag_149\n      jumpi\n      0x00\n      dup2\n      0x00\n      swap1\n      sstore\n      pop\n      0x01\n      add\n      jump(tag_148)\n    tag_149:\n      pop\n      swap1\n      jump\t// out\n        /* \"#utility.yul\":7:419   */\n    tag_151:\n        /* \"#utility.yul\":85:90   */\n      0x00\n        /* \"#utility.yul\":110:176   */\n      tag_153\n        /* \"#utility.yul\":126:175   */\n      tag_154\n        /* \"#utility.yul\":168:174   */\n      dup5\n        /* \"#utility.yul\":126:175   */\n      tag_155\n      jump\t// in\n    tag_154:\n        /* \"#utility.yul\":110:176   */\n      tag_156\n      jump\t// in\n    tag_153:\n        /* \"#utility.yul\":101:176   */\n      swap1\n      pop\n        /* \"#utility.yul\":199:205   */\n      dup3\n        /* \"#utility.yul\":192:197   */\n      dup2\n        /* \"#utility.yul\":185:206   */\n      mstore\n        /* \"#utility.yul\":237:241   */\n      0x20\n        /* \"#utility.yul\":230:235   */\n      dup2\n        /* \"#utility.yul\":226:242   */\n      add\n        /* \"#utility.yul\":275:278   */\n      dup5\n        /* \"#utility.yul\":266:272   */\n      dup5\n        /* \"#utility.yul\":261:264   */\n      dup5\n        /* \"#utility.yul\":257:273   */\n      add\n        /* \"#utility.yul\":254:279   */\n      gt\n        /* \"#utility.yul\":251:363   */\n      iszero\n      tag_157\n      jumpi\n        /* \"#utility.yul\":282:361   */\n      tag_158\n      tag_159\n      jump\t// in\n    tag_158:\n        /* \"#utility.yul\":251:363   */\n    tag_157:\n        /* \"#utility.yul\":372:413   */\n      tag_160\n        /* \"#utility.yul\":406:412   */\n      dup5\n        /* \"#utility.yul\":401:404   */\n      dup3\n        /* \"#utility.yul\":396:399   */\n      dup6\n        /* \"#utility.yul\":372:413   */\n      tag_161\n      jump\t// in\n    tag_160:\n        /* \"#utility.yul\":91:419   */\n      pop\n        /* \"#utility.yul\":7:419   */\n      swap4\n      swap3\n      pop\n      pop\n      pop\n      jump\t// out\n        /* \"#utility.yul\":425:564   */\n    tag_162:\n        /* \"#utility.yul\":471:476   */\n      0x00\n        /* \"#utility.yul\":509:515   */\n      dup2\n        /* \"#utility.yul\":496:516   */\n      calldataload\n        /* \"#utility.yul\":487:516   */\n      swap1\n      pop\n        /* \"#utility.yul\":525:558   */\n      tag_164\n        /* \"#utility.yul\":552:557   */\n      dup2\n        /* \"#utility.yul\":525:558   */\n      tag_165\n      jump\t// in\n    tag_164:\n        /* \"#utility.yul\":425:564   */\n      swap3\n      swap2\n      pop\n      pop\n      jump\t// out\n        /* \"#utility.yul\":570:725   */\n    tag_166:\n        /* \"#utility.yul\":624:629   */\n      0x00\n        /* \"#utility.yul\":662:668   */\n      dup2\n        /* \"#utility.yul\":649:669   */\n      calldataload\n        /* \"#utility.yul\":640:669   */\n      swap1\n      pop\n        /* \"#utility.yul\":678:719   */\n      tag_168\n        /* \"#utility.yul\":713:718   */\n      dup2\n        /* \"#utility.yul\":678:719   */\n      tag_169\n      jump\t// in\n    tag_168:\n        /* \"#utility.yul\":570:725   */\n      swap3\n      swap2\n      pop\n      pop\n      jump\t// out\n        /* \"#utility.yul\":745:1085   */\n    tag_170:\n        /* \"#utility.yul\":801:806   */\n      0x00\n        /* \"#utility.yul\":850:853   */\n      dup3\n        /* \"#utility.yul\":843:847   */\n      0x1f\n        /* \"#utility.yul\":835:841   */\n      dup4\n        /* \"#utility.yul\":831:848   */\n      add\n        /* \"#utility.yul\":827:854   */\n      slt\n        /* \"#utility.yul\":817:939   */\n      tag_172\n      jumpi\n        /* \"#utility.yul\":858:937   */\n      tag_173\n      tag_174\n      jump\t// in\n    tag_173:\n        /* \"#utility.yul\":817:939   */\n    tag_172:\n        /* \"#utility.yul\":975:981   */\n      dup2\n        /* \"#utility.yul\":962:982   */\n      calldataload\n        /* \"#utility.yul\":1000:1079   */\n      tag_175\n        /* \"#utility.yul\":1075:1078   */\n      dup5\n        /* \"#utility.yul\":1067:1073   */\n      dup3\n        /* \"#utility.yul\":1060:1064   */\n      0x20\n        /* \"#utility.yul\":1052:1058   */\n      dup7\n        /* \"#utility.yul\":1048:1065   */\n      add\n        /* \"#utility.yul\":1000:1079   */\n      tag_151\n      jump\t// in\n    tag_175:\n        /* \"#utility.yul\":991:1079   */\n      swap2\n      pop\n        /* \"#utility.yul\":807:1085   */\n      pop\n        /* \"#utility.yul\":745:1085   */\n      swap3\n      swap2\n      pop\n      pop\n      jump\t// out\n        /* \"#utility.yul\":1091:1230   */\n    tag_176:\n        /* \"#utility.yul\":1137:1142   */\n      0x00\n        /* \"#utility.yul\":1175:1181   */\n      dup2\n        /* \"#utility.yul\":1162:1182   */\n      calldataload\n        /* \"#utility.yul\":1153:1182   */\n      swap1\n      pop\n        /* \"#utility.yul\":1191:1224   */\n      tag_178\n        /* \"#utility.yul\":1218:1223   */\n      dup2\n        /* \"#utility.yul\":1191:1224   */\n      tag_179\n      jump\t// in\n    tag_178:\n        /* \"#utility.yul\":1091:1230   */\n      swap3\n      swap2\n      pop\n      pop\n      jump\t// out\n        /* \"#utility.yul\":1236:1565   */\n    tag_25:\n        /* \"#utility.yul\":1295:1301   */\n      0x00\n        /* \"#utility.yul\":1344:1346   */\n      0x20\n        /* \"#utility.yul\":1332:1341   */\n      dup3\n        /* \"#utility.yul\":1323:1330   */\n      dup5\n        /* \"#utility.yul\":1319:1342   */\n      sub\n        /* \"#utility.yul\":1315:1347   */\n      slt\n        /* \"#utility.yul\":1312:1431   */\n      iszero\n      tag_181\n      jumpi\n        /* \"#utility.yul\":1350:1429   */\n      tag_182\n      tag_183\n      jump\t// in\n    tag_182:\n        /* \"#utility.yul\":1312:1431   */\n    tag_181:\n        /* \"#utility.yul\":1470:1471   */\n      0x00\n        /* \"#utility.yul\":1495:1548   */\n      tag_184\n        /* \"#utility.yul\":1540:1547   */\n      dup5\n        /* \"#utility.yul\":1531:1537   */\n      dup3\n        /* \"#utility.yul\":1520:1529   */\n      dup6\n        /* \"#utility.yul\":1516:1538   */\n      add\n        /* \"#utility.yul\":1495:1548   */\n      tag_162\n      jump\t// in\n    tag_184:\n        /* \"#utility.yul\":1485:1548   */\n      swap2\n      pop\n        /* \"#utility.yul\":1441:1558   */\n      pop\n        /* \"#utility.yul\":1236:1565   */\n      swap3\n      swap2\n      pop\n      pop\n      jump\t// out\n        /* \"#utility.yul\":1571:2386   */\n    tag_36:\n        /* \"#utility.yul\":1666:1672   */\n      0x00\n        /* \"#utility.yul\":1674:1680   */\n      dup1\n        /* \"#utility.yul\":1682:1688   */\n      0x00\n        /* \"#utility.yul\":1731:1733   */\n      0x60\n        /* \"#utility.yul\":1719:1728   */\n      dup5\n        /* \"#utility.yul\":1710:1717   */\n      dup7\n        /* \"#utility.yul\":1706:1729   */\n      sub\n        /* \"#utility.yul\":1702:1734   */\n      slt\n        /* \"#utility.yul\":1699:1818   */\n      iszero\n      tag_186\n      jumpi\n        /* \"#utility.yul\":1737:1816   */\n      tag_187\n      tag_183\n      jump\t// in\n    tag_187:\n        /* \"#utility.yul\":1699:1818   */\n    tag_186:\n        /* \"#utility.yul\":1885:1886   */\n      0x00\n        /* \"#utility.yul\":1874:1883   */\n      dup5\n        /* \"#utility.yul\":1870:1887   */\n      add\n        /* \"#utility.yul\":1857:1888   */\n      calldataload\n        /* \"#utility.yul\":1915:1933   */\n      0xffffffffffffffff\n        /* \"#utility.yul\":1907:1913   */\n      dup2\n        /* \"#utility.yul\":1904:1934   */\n      gt\n        /* \"#utility.yul\":1901:2018   */\n      iszero\n      tag_188\n      jumpi\n        /* \"#utility.yul\":1937:2016   */\n      tag_189\n      tag_190\n      jump\t// in\n    tag_189:\n        /* \"#utility.yul\":1901:2018   */\n    tag_188:\n        /* \"#utility.yul\":2042:2105   */\n      tag_191\n        /* \"#utility.yul\":2097:2104   */\n      dup7\n        /* \"#utility.yul\":2088:2094   */\n      dup3\n        /* \"#utility.yul\":2077:2086   */\n      dup8\n        /* \"#utility.yul\":2073:2095   */\n      add\n        /* \"#utility.yul\":2042:2105   */\n      tag_170\n      jump\t// in\n    tag_191:\n        /* \"#utility.yul\":2032:2105   */\n      swap4\n      pop\n        /* \"#utility.yul\":1828:2115   */\n      pop\n        /* \"#utility.yul\":2154:2156   */\n      0x20\n        /* \"#utility.yul\":2180:2241   */\n      tag_192\n        /* \"#utility.yul\":2233:2240   */\n      dup7\n        /* \"#utility.yul\":2224:2230   */\n      dup3\n        /* \"#utility.yul\":2213:2222   */\n      dup8\n        /* \"#utility.yul\":2209:2231   */\n      add\n        /* \"#utility.yul\":2180:2241   */\n      tag_166\n      jump\t// in\n    tag_192:\n        /* \"#utility.yul\":2170:2241   */\n      swap3\n      pop\n        /* \"#utility.yul\":2125:2251   */\n      pop\n        /* \"#utility.yul\":2290:2292   */\n      0x40\n        /* \"#utility.yul\":2316:2369   */\n      tag_193\n        /* \"#utility.yul\":2361:2368   */\n      dup7\n        /* \"#utility.yul\":2352:2358   */\n      dup3\n        /* \"#utility.yul\":2341:2350   */\n      dup8\n        /* \"#utility.yul\":2337:2359   */\n      add\n        /* \"#utility.yul\":2316:2369   */\n      tag_176\n      jump\t// in\n    tag_193:\n        /* \"#utility.yul\":2306:2369   */\n      swap2\n      pop\n        /* \"#utility.yul\":2261:2379   */\n      pop\n        /* \"#utility.yul\":1571:2386   */\n      swap3\n      pop\n      swap3\n      pop\n      swap3\n      jump\t// out\n        /* \"#utility.yul\":2392:2721   */\n    tag_46:\n        /* \"#utility.yul\":2451:2457   */\n      0x00\n        /* \"#utility.yul\":2500:2502   */\n      0x20\n        /* \"#utility.yul\":2488:2497   */\n      dup3\n        /* \"#utility.yul\":2479:2486   */\n      dup5\n        /* \"#utility.yul\":2475:2498   */\n      sub\n        /* \"#utility.yul\":2471:2503   */\n      slt\n        /* \"#utility.yul\":2468:2587   */\n      iszero\n      tag_195\n      jumpi\n        /* \"#utility.yul\":2506:2585   */\n      tag_196\n      tag_183\n      jump\t// in\n    tag_196:\n        /* \"#utility.yul\":2468:2587   */\n    tag_195:\n        /* \"#utility.yul\":2626:2627   */\n      0x00\n        /* \"#utility.yul\":2651:2704   */\n      tag_197\n        /* \"#utility.yul\":2696:2703   */\n      dup5\n        /* \"#utility.yul\":2687:2693   */\n      dup3\n        /* \"#utility.yul\":2676:2685   */\n      dup6\n        /* \"#utility.yul\":2672:2694   */\n      add\n        /* \"#utility.yul\":2651:2704   */\n      tag_176\n      jump\t// in\n    tag_197:\n        /* \"#utility.yul\":2641:2704   */\n      swap2\n      pop\n        /* \"#utility.yul\":2597:2714   */\n      pop\n        /* \"#utility.yul\":2392:2721   */\n      swap3\n      swap2\n      pop\n      pop\n      jump\t// out\n        /* \"#utility.yul\":2727:2869   */\n    tag_198:\n        /* \"#utility.yul\":2830:2862   */\n      tag_200\n        /* \"#utility.yul\":2856:2861   */\n      dup2\n        /* \"#utility.yul\":2830:2862   */\n      tag_201\n      jump\t// in\n    tag_200:\n        /* \"#utility.yul\":2825:2828   */\n      dup3\n        /* \"#utility.yul\":2818:2863   */\n      mstore\n        /* \"#utility.yul\":2727:2869   */\n      pop\n      pop\n      jump\t// out\n        /* \"#utility.yul\":2875:2993   */\n    tag_202:\n        /* \"#utility.yul\":2962:2986   */\n      tag_204\n        /* \"#utility.yul\":2980:2985   */\n      dup2\n        /* \"#utility.yul\":2962:2986   */\n      tag_205\n      jump\t// in\n    tag_204:\n        /* \"#utility.yul\":2957:2960   */\n      dup3\n        /* \"#utility.yul\":2950:2987   */\n      mstore\n        /* \"#utility.yul\":2875:2993   */\n      pop\n      pop\n      jump\t// out\n        /* \"#utility.yul\":2999:3108   */\n    tag_206:\n        /* \"#utility.yul\":3080:3101   */\n      tag_208\n        /* \"#utility.yul\":3095:3100   */\n      dup2\n        /* \"#utility.yul\":3080:3101   */\n      tag_209\n      jump\t// in\n    tag_208:\n        /* \"#utility.yul\":3075:3078   */\n      dup3\n        /* \"#utility.yul\":3068:3102   */\n      mstore\n        /* \"#utility.yul\":2999:3108   */\n      pop\n      pop\n      jump\t// out\n        /* \"#utility.yul\":3114:3478   */\n    tag_210:\n        /* \"#utility.yul\":3202:3205   */\n      0x00\n        /* \"#utility.yul\":3230:3269   */\n      tag_212\n        /* \"#utility.yul\":3263:3268   */\n      dup3\n        /* \"#utility.yul\":3230:3269   */\n      tag_213\n      jump\t// in\n    tag_212:\n        /* \"#utility.yul\":3285:3356   */\n      tag_214\n        /* \"#utility.yul\":3349:3355   */\n      dup2\n        /* \"#utility.yul\":3344:3347   */\n      dup6\n        /* \"#utility.yul\":3285:3356   */\n      tag_215\n      jump\t// in\n    tag_214:\n        /* \"#utility.yul\":3278:3356   */\n      swap4\n      pop\n        /* \"#utility.yul\":3365:3417   */\n      tag_216\n        /* \"#utility.yul\":3410:3416   */\n      dup2\n        /* \"#utility.yul\":3405:3408   */\n      dup6\n        /* \"#utility.yul\":3398:3402   */\n      0x20\n        /* \"#utility.yul\":3391:3396   */\n      dup7\n        /* \"#utility.yul\":3387:3403   */\n      add\n        /* \"#utility.yul\":3365:3417   */\n      tag_217\n      jump\t// in\n    tag_216:\n        /* \"#utility.yul\":3442:3471   */\n      tag_218\n        /* \"#utility.yul\":3464:3470   */\n      dup2\n        /* \"#utility.yul\":3442:3471   */\n      tag_219\n      jump\t// in\n    tag_218:\n        /* \"#utility.yul\":3437:3440   */\n      dup5\n        /* \"#utility.yul\":3433:3472   */\n      add\n        /* \"#utility.yul\":3426:3472   */\n      swap2\n      pop\n        /* \"#utility.yul\":3206:3478   */\n      pop\n        /* \"#utility.yul\":3114:3478   */\n      swap3\n      swap2\n      pop\n      pop\n      jump\t// out\n        /* \"#utility.yul\":3484:3850   */\n    tag_220:\n        /* \"#utility.yul\":3626:3629   */\n      0x00\n        /* \"#utility.yul\":3647:3714   */\n      tag_222\n        /* \"#utility.yul\":3711:3713   */\n      0x23\n        /* \"#utility.yul\":3706:3709   */\n      dup4\n        /* \"#utility.yul\":3647:3714   */\n      tag_215\n      jump\t// in\n    tag_222:\n        /* \"#utility.yul\":3640:3714   */\n      swap2\n      pop\n        /* \"#utility.yul\":3723:3816   */\n      tag_223\n        /* \"#utility.yul\":3812:3815   */\n      dup3\n        /* \"#utility.yul\":3723:3816   */\n      tag_224\n      jump\t// in\n    tag_223:\n        /* \"#utility.yul\":3841:3843   */\n      0x40\n        /* \"#utility.yul\":3836:3839   */\n      dup3\n        /* \"#utility.yul\":3832:3844   */\n      add\n        /* \"#utility.yul\":3825:3844   */\n      swap1\n      pop\n        /* \"#utility.yul\":3484:3850   */\n      swap2\n      swap1\n      pop\n      jump\t// out\n        /* \"#utility.yul\":3856:4222   */\n    tag_225:\n        /* \"#utility.yul\":3998:4001   */\n      0x00\n        /* \"#utility.yul\":4019:4086   */\n      tag_227\n        /* \"#utility.yul\":4083:4085   */\n      0x13\n        /* \"#utility.yul\":4078:4081   */\n      dup4\n        /* \"#utility.yul\":4019:4086   */\n      tag_215\n      jump\t// in\n    tag_227:\n        /* \"#utility.yul\":4012:4086   */\n      swap2\n      pop\n        /* \"#utility.yul\":4095:4188   */\n      tag_228\n        /* \"#utility.yul\":4184:4187   */\n      dup3\n        /* \"#utility.yul\":4095:4188   */\n      tag_229\n      jump\t// in\n    tag_228:\n        /* \"#utility.yul\":4213:4215   */\n      0x20\n        /* \"#utility.yul\":4208:4211   */\n      dup3\n        /* \"#utility.yul\":4204:4216   */\n      add\n        /* \"#utility.yul\":4197:4216   */\n      swap1\n      pop\n        /* \"#utility.yul\":3856:4222   */\n      swap2\n      swap1\n      pop\n      jump\t// out\n        /* \"#utility.yul\":4228:4594   */\n    tag_230:\n        /* \"#utility.yul\":4370:4373   */\n      0x00\n        /* \"#utility.yul\":4391:4458   */\n      tag_232\n        /* \"#utility.yul\":4455:4457   */\n      0x1f\n        /* \"#utility.yul\":4450:4453   */\n      dup4\n        /* \"#utility.yul\":4391:4458   */\n      tag_215\n      jump\t// in\n    tag_232:\n        /* \"#utility.yul\":4384:4458   */\n      swap2\n      pop\n        /* \"#utility.yul\":4467:4560   */\n      tag_233\n        /* \"#utility.yul\":4556:4559   */\n      dup3\n        /* \"#utility.yul\":4467:4560   */\n      tag_234\n      jump\t// in\n    tag_233:\n        /* \"#utility.yul\":4585:4587   */\n      0x20\n        /* \"#utility.yul\":4580:4583   */\n      dup3\n        /* \"#utility.yul\":4576:4588   */\n      add\n        /* \"#utility.yul\":4569:4588   */\n      swap1\n      pop\n        /* \"#utility.yul\":4228:4594   */\n      swap2\n      swap1\n      pop\n      jump\t// out\n        /* \"#utility.yul\":4600:4966   */\n    tag_235:\n        /* \"#utility.yul\":4742:4745   */\n      0x00\n        /* \"#utility.yul\":4763:4830   */\n      tag_237\n        /* \"#utility.yul\":4827:4829   */\n      0x1e\n        /* \"#utility.yul\":4822:4825   */\n      dup4\n        /* \"#utility.yul\":4763:4830   */\n      tag_215\n      jump\t// in\n    tag_237:\n        /* \"#utility.yul\":4756:4830   */\n      swap2\n      pop\n        /* \"#utility.yul\":4839:4932   */\n      tag_238\n        /* \"#utility.yul\":4928:4931   */\n      dup3\n        /* \"#utility.yul\":4839:4932   */\n      tag_239\n      jump\t// in\n    tag_238:\n        /* \"#utility.yul\":4957:4959   */\n      0x20\n        /* \"#utility.yul\":4952:4955   */\n      dup3\n        /* \"#utility.yul\":4948:4960   */\n      add\n        /* \"#utility.yul\":4941:4960   */\n      swap1\n      pop\n        /* \"#utility.yul\":4600:4966   */\n      swap2\n      swap1\n      pop\n      jump\t// out\n        /* \"#utility.yul\":4972:5338   */\n    tag_240:\n        /* \"#utility.yul\":5114:5117   */\n      0x00\n        /* \"#utility.yul\":5135:5202   */\n      tag_242\n        /* \"#utility.yul\":5199:5201   */\n      0x19\n        /* \"#utility.yul\":5194:5197   */\n      dup4\n        /* \"#utility.yul\":5135:5202   */\n      tag_215\n      jump\t// in\n    tag_242:\n        /* \"#utility.yul\":5128:5202   */\n      swap2\n      pop\n        /* \"#utility.yul\":5211:5304   */\n      tag_243\n        /* \"#utility.yul\":5300:5303   */\n      dup3\n        /* \"#utility.yul\":5211:5304   */\n      tag_244\n      jump\t// in\n    tag_243:\n        /* \"#utility.yul\":5329:5331   */\n      0x20\n        /* \"#utility.yul\":5324:5327   */\n      dup3\n        /* \"#utility.yul\":5320:5332   */\n      add\n        /* \"#utility.yul\":5313:5332   */\n      swap1\n      pop\n        /* \"#utility.yul\":4972:5338   */\n      swap2\n      swap1\n      pop\n      jump\t// out\n        /* \"#utility.yul\":5344:5710   */\n    tag_245:\n        /* \"#utility.yul\":5486:5489   */\n      0x00\n        /* \"#utility.yul\":5507:5574   */\n      tag_247\n        /* \"#utility.yul\":5571:5573   */\n      0x1f\n        /* \"#utility.yul\":5566:5569   */\n      dup4\n        /* \"#utility.yul\":5507:5574   */\n      tag_215\n      jump\t// in\n    tag_247:\n        /* \"#utility.yul\":5500:5574   */\n      swap2\n      pop\n        /* \"#utility.yul\":5583:5676   */\n      tag_248\n        /* \"#utility.yul\":5672:5675   */\n      dup3\n        /* \"#utility.yul\":5583:5676   */\n      tag_249\n      jump\t// in\n    tag_248:\n        /* \"#utility.yul\":5701:5703   */\n      0x20\n        /* \"#utility.yul\":5696:5699   */\n      dup3\n        /* \"#utility.yul\":5692:5704   */\n      add\n        /* \"#utility.yul\":5685:5704   */\n      swap1\n      pop\n        /* \"#utility.yul\":5344:5710   */\n      swap2\n      swap1\n      pop\n      jump\t// out\n        /* \"#utility.yul\":5716:6082   */\n    tag_250:\n        /* \"#utility.yul\":5858:5861   */\n      0x00\n        /* \"#utility.yul\":5879:5946   */\n      tag_252\n        /* \"#utility.yul\":5943:5945   */\n      0x16\n        /* \"#utility.yul\":5938:5941   */\n      dup4\n        /* \"#utility.yul\":5879:5946   */\n      tag_215\n      jump\t// in\n    tag_252:\n        /* \"#utility.yul\":5872:5946   */\n      swap2\n      pop\n        /* \"#utility.yul\":5955:6048   */\n      tag_253\n        /* \"#utility.yul\":6044:6047   */\n      dup3\n        /* \"#utility.yul\":5955:6048   */\n      tag_254\n      jump\t// in\n    tag_253:\n        /* \"#utility.yul\":6073:6075   */\n      0x20\n        /* \"#utility.yul\":6068:6071   */\n      dup3\n        /* \"#utility.yul\":6064:6076   */\n      add\n        /* \"#utility.yul\":6057:6076   */\n      swap1\n      pop\n        /* \"#utility.yul\":5716:6082   */\n      swap2\n      swap1\n      pop\n      jump\t// out\n        /* \"#utility.yul\":6088:6206   */\n    tag_255:\n        /* \"#utility.yul\":6175:6199   */\n      tag_257\n        /* \"#utility.yul\":6193:6198   */\n      dup2\n        /* \"#utility.yul\":6175:6199   */\n      tag_258\n      jump\t// in\n    tag_257:\n        /* \"#utility.yul\":6170:6173   */\n      dup3\n        /* \"#utility.yul\":6163:6200   */\n      mstore\n        /* \"#utility.yul\":6088:6206   */\n      pop\n      pop\n      jump\t// out\n        /* \"#utility.yul\":6212:6434   */\n    tag_42:\n        /* \"#utility.yul\":6305:6309   */\n      0x00\n        /* \"#utility.yul\":6343:6345   */\n      0x20\n        /* \"#utility.yul\":6332:6341   */\n      dup3\n        /* \"#utility.yul\":6328:6346   */\n      add\n        /* \"#utility.yul\":6320:6346   */\n      swap1\n      pop\n        /* \"#utility.yul\":6356:6427   */\n      tag_260\n        /* \"#utility.yul\":6424:6425   */\n      0x00\n        /* \"#utility.yul\":6413:6422   */\n      dup4\n        /* \"#utility.yul\":6409:6426   */\n      add\n        /* \"#utility.yul\":6400:6406   */\n      dup5\n        /* \"#utility.yul\":6356:6427   */\n      tag_202\n      jump\t// in\n    tag_260:\n        /* \"#utility.yul\":6212:6434   */\n      swap3\n      swap2\n      pop\n      pop\n      jump\t// out\n        /* \"#utility.yul\":6440:7215   */\n    tag_68:\n        /* \"#utility.yul\":6675:6679   */\n      0x00\n        /* \"#utility.yul\":6713:6716   */\n      0xa0\n        /* \"#utility.yul\":6702:6711   */\n      dup3\n        /* \"#utility.yul\":6698:6717   */\n      add\n        /* \"#utility.yul\":6690:6717   */\n      swap1\n      pop\n        /* \"#utility.yul\":6763:6772   */\n      dup2\n        /* \"#utility.yul\":6757:6761   */\n      dup2\n        /* \"#utility.yul\":6753:6773   */\n      sub\n        /* \"#utility.yul\":6749:6750   */\n      0x00\n        /* \"#utility.yul\":6738:6747   */\n      dup4\n        /* \"#utility.yul\":6734:6751   */\n      add\n        /* \"#utility.yul\":6727:6774   */\n      mstore\n        /* \"#utility.yul\":6791:6869   */\n      tag_262\n        /* \"#utility.yul\":6864:6868   */\n      dup2\n        /* \"#utility.yul\":6855:6861   */\n      dup9\n        /* \"#utility.yul\":6791:6869   */\n      tag_210\n      jump\t// in\n    tag_262:\n        /* \"#utility.yul\":6783:6869   */\n      swap1\n      pop\n        /* \"#utility.yul\":6879:6967   */\n      tag_263\n        /* \"#utility.yul\":6963:6965   */\n      0x20\n        /* \"#utility.yul\":6952:6961   */\n      dup4\n        /* \"#utility.yul\":6948:6966   */\n      add\n        /* \"#utility.yul\":6939:6945   */\n      dup8\n        /* \"#utility.yul\":6879:6967   */\n      tag_198\n      jump\t// in\n    tag_263:\n        /* \"#utility.yul\":6977:7049   */\n      tag_264\n        /* \"#utility.yul\":7045:7047   */\n      0x40\n        /* \"#utility.yul\":7034:7043   */\n      dup4\n        /* \"#utility.yul\":7030:7048   */\n      add\n        /* \"#utility.yul\":7021:7027   */\n      dup7\n        /* \"#utility.yul\":6977:7049   */\n      tag_255\n      jump\t// in\n    tag_264:\n        /* \"#utility.yul\":7059:7125   */\n      tag_265\n        /* \"#utility.yul\":7121:7123   */\n      0x60\n        /* \"#utility.yul\":7110:7119   */\n      dup4\n        /* \"#utility.yul\":7106:7124   */\n      add\n        /* \"#utility.yul\":7097:7103   */\n      dup6\n        /* \"#utility.yul\":7059:7125   */\n      tag_206\n      jump\t// in\n    tag_265:\n        /* \"#utility.yul\":7135:7208   */\n      tag_266\n        /* \"#utility.yul\":7203:7206   */\n      0x80\n        /* \"#utility.yul\":7192:7201   */\n      dup4\n        /* \"#utility.yul\":7188:7207   */\n      add\n        /* \"#utility.yul\":7179:7185   */\n      dup5\n        /* \"#utility.yul\":7135:7208   */\n      tag_255\n      jump\t// in\n    tag_266:\n        /* \"#utility.yul\":6440:7215   */\n      swap7\n      swap6\n      pop\n      pop\n      pop\n      pop\n      pop\n      pop\n      jump\t// out\n        /* \"#utility.yul\":7221:7640   */\n    tag_101:\n        /* \"#utility.yul\":7387:7391   */\n      0x00\n        /* \"#utility.yul\":7425:7427   */\n      0x20\n        /* \"#utility.yul\":7414:7423   */\n      dup3\n        /* \"#utility.yul\":7410:7428   */\n      add\n        /* \"#utility.yul\":7402:7428   */\n      swap1\n      pop\n        /* \"#utility.yul\":7474:7483   */\n      dup2\n        /* \"#utility.yul\":7468:7472   */\n      dup2\n        /* \"#utility.yul\":7464:7484   */\n      sub\n        /* \"#utility.yul\":7460:7461   */\n      0x00\n        /* \"#utility.yul\":7449:7458   */\n      dup4\n        /* \"#utility.yul\":7445:7462   */\n      add\n        /* \"#utility.yul\":7438:7485   */\n      mstore\n        /* \"#utility.yul\":7502:7633   */\n      tag_268\n        /* \"#utility.yul\":7628:7632   */\n      dup2\n        /* \"#utility.yul\":7502:7633   */\n      tag_220\n      jump\t// in\n    tag_268:\n        /* \"#utility.yul\":7494:7633   */\n      swap1\n      pop\n        /* \"#utility.yul\":7221:7640   */\n      swap2\n      swap1\n      pop\n      jump\t// out\n        /* \"#utility.yul\":7646:8065   */\n    tag_88:\n        /* \"#utility.yul\":7812:7816   */\n      0x00\n        /* \"#utility.yul\":7850:7852   */\n      0x20\n        /* \"#utility.yul\":7839:7848   */\n      dup3\n        /* \"#utility.yul\":7835:7853   */\n      add\n        /* \"#utility.yul\":7827:7853   */\n      swap1\n      pop\n        /* \"#utility.yul\":7899:7908   */\n      dup2\n        /* \"#utility.yul\":7893:7897   */\n      dup2\n        /* \"#utility.yul\":7889:7909   */\n      sub\n        /* \"#utility.yul\":7885:7886   */\n      0x00\n        /* \"#utility.yul\":7874:7883   */\n      dup4\n        /* \"#utility.yul\":7870:7887   */\n      add\n        /* \"#utility.yul\":7863:7910   */\n      mstore\n        /* \"#utility.yul\":7927:8058   */\n      tag_270\n        /* \"#utility.yul\":8053:8057   */\n      dup2\n        /* \"#utility.yul\":7927:8058   */\n      tag_225\n      jump\t// in\n    tag_270:\n        /* \"#utility.yul\":7919:8058   */\n      swap1\n      pop\n        /* \"#utility.yul\":7646:8065   */\n      swap2\n      swap1\n      pop\n      jump\t// out\n        /* \"#utility.yul\":8071:8490   */\n    tag_91:\n        /* \"#utility.yul\":8237:8241   */\n      0x00\n        /* \"#utility.yul\":8275:8277   */\n      0x20\n        /* \"#utility.yul\":8264:8273   */\n      dup3\n        /* \"#utility.yul\":8260:8278   */\n      add\n        /* \"#utility.yul\":8252:8278   */\n      swap1\n      pop\n        /* \"#utility.yul\":8324:8333   */\n      dup2\n        /* \"#utility.yul\":8318:8322   */\n      dup2\n        /* \"#utility.yul\":8314:8334   */\n      sub\n        /* \"#utility.yul\":8310:8311   */\n      0x00\n        /* \"#utility.yul\":8299:8308   */\n      dup4\n        /* \"#utility.yul\":8295:8312   */\n      add\n        /* \"#utility.yul\":8288:8335   */\n      mstore\n        /* \"#utility.yul\":8352:8483   */\n      tag_272\n        /* \"#utility.yul\":8478:8482   */\n      dup2\n        /* \"#utility.yul\":8352:8483   */\n      tag_230\n      jump\t// in\n    tag_272:\n        /* \"#utility.yul\":8344:8483   */\n      swap1\n      pop\n        /* \"#utility.yul\":8071:8490   */\n      swap2\n      swap1\n      pop\n      jump\t// out\n        /* \"#utility.yul\":8496:8915   */\n    tag_121:\n        /* \"#utility.yul\":8662:8666   */\n      0x00\n        /* \"#utility.yul\":8700:8702   */\n      0x20\n        /* \"#utility.yul\":8689:8698   */\n      dup3\n        /* \"#utility.yul\":8685:8703   */\n      add\n        /* \"#utility.yul\":8677:8703   */\n      swap1\n      pop\n        /* \"#utility.yul\":8749:8758   */\n      dup2\n        /* \"#utility.yul\":8743:8747   */\n      dup2\n        /* \"#utility.yul\":8739:8759   */\n      sub\n        /* \"#utility.yul\":8735:8736   */\n      0x00\n        /* \"#utility.yul\":8724:8733   */\n      dup4\n        /* \"#utility.yul\":8720:8737   */\n      add\n        /* \"#utility.yul\":8713:8760   */\n      mstore\n        /* \"#utility.yul\":8777:8908   */\n      tag_274\n        /* \"#utility.yul\":8903:8907   */\n      dup2\n        /* \"#utility.yul\":8777:8908   */\n      tag_235\n      jump\t// in\n    tag_274:\n        /* \"#utility.yul\":8769:8908   */\n      swap1\n      pop\n        /* \"#utility.yul\":8496:8915   */\n      swap2\n      swap1\n      pop\n      jump\t// out\n        /* \"#utility.yul\":8921:9340   */\n    tag_109:\n        /* \"#utility.yul\":9087:9091   */\n      0x00\n        /* \"#utility.yul\":9125:9127   */\n      0x20\n        /* \"#utility.yul\":9114:9123   */\n      dup3\n        /* \"#utility.yul\":9110:9128   */\n      add\n        /* \"#utility.yul\":9102:9128   */\n      swap1\n      pop\n        /* \"#utility.yul\":9174:9183   */\n      dup2\n        /* \"#utility.yul\":9168:9172   */\n      dup2\n        /* \"#utility.yul\":9164:9184   */\n      sub\n        /* \"#utility.yul\":9160:9161   */\n      0x00\n        /* \"#utility.yul\":9149:9158   */\n      dup4\n        /* \"#utility.yul\":9145:9162   */\n      add\n        /* \"#utility.yul\":9138:9185   */\n      mstore\n        /* \"#utility.yul\":9202:9333   */\n      tag_276\n        /* \"#utility.yul\":9328:9332   */\n      dup2\n        /* \"#utility.yul\":9202:9333   */\n      tag_240\n      jump\t// in\n    tag_276:\n        /* \"#utility.yul\":9194:9333   */\n      swap1\n      pop\n        /* \"#utility.yul\":8921:9340   */\n      swap2\n      swap1\n      pop\n      jump\t// out\n        /* \"#utility.yul\":9346:9765   */\n    tag_129:\n        /* \"#utility.yul\":9512:9516   */\n      0x00\n        /* \"#utility.yul\":9550:9552   */\n      0x20\n        /* \"#utility.yul\":9539:9548   */\n      dup3\n        /* \"#utility.yul\":9535:9553   */\n      add\n        /* \"#utility.yul\":9527:9553   */\n      swap1\n      pop\n        /* \"#utility.yul\":9599:9608   */\n      dup2\n        /* \"#utility.yul\":9593:9597   */\n      dup2\n        /* \"#utility.yul\":9589:9609   */\n      sub\n        /* \"#utility.yul\":9585:9586   */\n      0x00\n        /* \"#utility.yul\":9574:9583   */\n      dup4\n        /* \"#utility.yul\":9570:9587   */\n      add\n        /* \"#utility.yul\":9563:9610   */\n      mstore\n        /* \"#utility.yul\":9627:9758   */\n      tag_278\n        /* \"#utility.yul\":9753:9757   */\n      dup2\n        /* \"#utility.yul\":9627:9758   */\n      tag_245\n      jump\t// in\n    tag_278:\n        /* \"#utility.yul\":9619:9758   */\n      swap1\n      pop\n        /* \"#utility.yul\":9346:9765   */\n      swap2\n      swap1\n      pop\n      jump\t// out\n        /* \"#utility.yul\":9771:10190   */\n    tag_112:\n        /* \"#utility.yul\":9937:9941   */\n      0x00\n        /* \"#utility.yul\":9975:9977   */\n      0x20\n        /* \"#utility.yul\":9964:9973   */\n      dup3\n        /* \"#utility.yul\":9960:9978   */\n      add\n        /* \"#utility.yul\":9952:9978   */\n      swap1\n      pop\n        /* \"#utility.yul\":10024:10033   */\n      dup2\n        /* \"#utility.yul\":10018:10022   */\n      dup2\n        /* \"#utility.yul\":10014:10034   */\n      sub\n        /* \"#utility.yul\":10010:10011   */\n      0x00\n        /* \"#utility.yul\":9999:10008   */\n      dup4\n        /* \"#utility.yul\":9995:10012   */\n      add\n        /* \"#utility.yul\":9988:10035   */\n      mstore\n        /* \"#utility.yul\":10052:10183   */\n      tag_280\n        /* \"#utility.yul\":10178:10182   */\n      dup2\n        /* \"#utility.yul\":10052:10183   */\n      tag_250\n      jump\t// in\n    tag_280:\n        /* \"#utility.yul\":10044:10183   */\n      swap1\n      pop\n        /* \"#utility.yul\":9771:10190   */\n      swap2\n      swap1\n      pop\n      jump\t// out\n        /* \"#utility.yul\":10196:10418   */\n    tag_28:\n        /* \"#utility.yul\":10289:10293   */\n      0x00\n        /* \"#utility.yul\":10327:10329   */\n      0x20\n        /* \"#utility.yul\":10316:10325   */\n      dup3\n        /* \"#utility.yul\":10312:10330   */\n      add\n        /* \"#utility.yul\":10304:10330   */\n      swap1\n      pop\n        /* \"#utility.yul\":10340:10411   */\n      tag_282\n        /* \"#utility.yul\":10408:10409   */\n      0x00\n        /* \"#utility.yul\":10397:10406   */\n      dup4\n        /* \"#utility.yul\":10393:10410   */\n      add\n        /* \"#utility.yul\":10384:10390   */\n      dup5\n        /* \"#utility.yul\":10340:10411   */\n      tag_255\n      jump\t// in\n    tag_282:\n        /* \"#utility.yul\":10196:10418   */\n      swap3\n      swap2\n      pop\n      pop\n      jump\t// out\n        /* \"#utility.yul\":10424:10553   */\n    tag_156:\n        /* \"#utility.yul\":10458:10464   */\n      0x00\n        /* \"#utility.yul\":10485:10505   */\n      tag_284\n      tag_285\n      jump\t// in\n    tag_284:\n        /* \"#utility.yul\":10475:10505   */\n      swap1\n      pop\n        /* \"#utility.yul\":10514:10547   */\n      tag_286\n        /* \"#utility.yul\":10542:10546   */\n      dup3\n        /* \"#utility.yul\":10534:10540   */\n      dup3\n        /* \"#utility.yul\":10514:10547   */\n      tag_287\n      jump\t// in\n    tag_286:\n        /* \"#utility.yul\":10424:10553   */\n      swap2\n      swap1\n      pop\n      jump\t// out\n        /* \"#utility.yul\":10559:10634   */\n    tag_285:\n        /* \"#utility.yul\":10592:10598   */\n      0x00\n        /* \"#utility.yul\":10625:10627   */\n      0x40\n        /* \"#utility.yul\":10619:10628   */\n      mload\n        /* \"#utility.yul\":10609:10628   */\n      swap1\n      pop\n        /* \"#utility.yul\":10559:10634   */\n      swap1\n      jump\t// out\n        /* \"#utility.yul\":10640:10948   */\n    tag_155:\n        /* \"#utility.yul\":10702:10706   */\n      0x00\n        /* \"#utility.yul\":10792:10810   */\n      0xffffffffffffffff\n        /* \"#utility.yul\":10784:10790   */\n      dup3\n        /* \"#utility.yul\":10781:10811   */\n      gt\n        /* \"#utility.yul\":10778:10834   */\n      iszero\n      tag_290\n      jumpi\n        /* \"#utility.yul\":10814:10832   */\n      tag_291\n      tag_292\n      jump\t// in\n    tag_291:\n        /* \"#utility.yul\":10778:10834   */\n    tag_290:\n        /* \"#utility.yul\":10852:10881   */\n      tag_293\n        /* \"#utility.yul\":10874:10880   */\n      dup3\n        /* \"#utility.yul\":10852:10881   */\n      tag_219\n      jump\t// in\n    tag_293:\n        /* \"#utility.yul\":10844:10881   */\n      swap1\n      pop\n        /* \"#utility.yul\":10936:10940   */\n      0x20\n        /* \"#utility.yul\":10930:10934   */\n      dup2\n        /* \"#utility.yul\":10926:10941   */\n      add\n        /* \"#utility.yul\":10918:10941   */\n      swap1\n      pop\n        /* \"#utility.yul\":10640:10948   */\n      swap2\n      swap1\n      pop\n      jump\t// out\n        /* \"#utility.yul\":10954:11053   */\n    tag_213:\n        /* \"#utility.yul\":11006:11012   */\n      0x00\n        /* \"#utility.yul\":11040:11045   */\n      dup2\n        /* \"#utility.yul\":11034:11046   */\n      mload\n        /* \"#utility.yul\":11024:11046   */\n      swap1\n      pop\n        /* \"#utility.yul\":10954:11053   */\n      swap2\n      swap1\n      pop\n      jump\t// out\n        /* \"#utility.yul\":11059:11228   */\n    tag_215:\n        /* \"#utility.yul\":11143:11154   */\n      0x00\n        /* \"#utility.yul\":11177:11183   */\n      dup3\n        /* \"#utility.yul\":11172:11175   */\n      dup3\n        /* \"#utility.yul\":11165:11184   */\n      mstore\n        /* \"#utility.yul\":11217:11221   */\n      0x20\n        /* \"#utility.yul\":11212:11215   */\n      dup3\n        /* \"#utility.yul\":11208:11222   */\n      add\n        /* \"#utility.yul\":11193:11222   */\n      swap1\n      pop\n        /* \"#utility.yul\":11059:11228   */\n      swap3\n      swap2\n      pop\n      pop\n      jump\t// out\n        /* \"#utility.yul\":11234:11539   */\n    tag_96:\n        /* \"#utility.yul\":11274:11277   */\n      0x00\n        /* \"#utility.yul\":11293:11313   */\n      tag_297\n        /* \"#utility.yul\":11311:11312   */\n      dup3\n        /* \"#utility.yul\":11293:11313   */\n      tag_258\n      jump\t// in\n    tag_297:\n        /* \"#utility.yul\":11288:11313   */\n      swap2\n      pop\n        /* \"#utility.yul\":11327:11347   */\n      tag_298\n        /* \"#utility.yul\":11345:11346   */\n      dup4\n        /* \"#utility.yul\":11327:11347   */\n      tag_258\n      jump\t// in\n    tag_298:\n        /* \"#utility.yul\":11322:11347   */\n      swap3\n      pop\n        /* \"#utility.yul\":11481:11482   */\n      dup3\n        /* \"#utility.yul\":11413:11479   */\n      0xffffffffffffffffffffffffffffffffffffffffffffffffffffffffffffffff\n        /* \"#utility.yul\":11409:11483   */\n      sub\n        /* \"#utility.yul\":11406:11407   */\n      dup3\n        /* \"#utility.yul\":11403:11484   */\n      gt\n        /* \"#utility.yul\":11400:11507   */\n      iszero\n      tag_299\n      jumpi\n        /* \"#utility.yul\":11487:11505   */\n      tag_300\n      tag_301\n      jump\t// in\n    tag_300:\n        /* \"#utility.yul\":11400:11507   */\n    tag_299:\n        /* \"#utility.yul\":11531:11532   */\n      dup3\n        /* \"#utility.yul\":11528:11529   */\n      dup3\n        /* \"#utility.yul\":11524:11533   */\n      add\n        /* \"#utility.yul\":11517:11533   */\n      swap1\n      pop\n        /* \"#utility.yul\":11234:11539   */\n      swap3\n      swap2\n      pop\n      pop\n      jump\t// out\n        /* \"#utility.yul\":11545:11730   */\n    tag_123:\n        /* \"#utility.yul\":11585:11586   */\n      0x00\n        /* \"#utility.yul\":11602:11622   */\n      tag_303\n        /* \"#utility.yul\":11620:11621   */\n      dup3\n        /* \"#utility.yul\":11602:11622   */\n      tag_258\n      jump\t// in\n    tag_303:\n        /* \"#utility.yul\":11597:11622   */\n      swap2\n      pop\n        /* \"#utility.yul\":11636:11656   */\n      tag_304\n        /* \"#utility.yul\":11654:11655   */\n      dup4\n        /* \"#utility.yul\":11636:11656   */\n      tag_258\n      jump\t// in\n    tag_304:\n        /* \"#utility.yul\":11631:11656   */\n      swap3\n      pop\n        /* \"#utility.yul\":11675:11676   */\n      dup3\n        /* \"#utility.yul\":11665:11700   */\n      tag_305\n      jumpi\n        /* \"#utility.yul\":11680:11698   */\n      tag_306\n      tag_307\n      jump\t// in\n    tag_306:\n        /* \"#utility.yul\":11665:11700   */\n    tag_305:\n        /* \"#utility.yul\":11722:11723   */\n      dup3\n        /* \"#utility.yul\":11719:11720   */\n      dup3\n        /* \"#utility.yul\":11715:11724   */\n      div\n        /* \"#utility.yul\":11710:11724   */\n      swap1\n      pop\n        /* \"#utility.yul\":11545:11730   */\n      swap3\n      swap2\n      pop\n      pop\n      jump\t// out\n        /* \"#utility.yul\":11736:11832   */\n    tag_205:\n        /* \"#utility.yul\":11773:11780   */\n      0x00\n        /* \"#utility.yul\":11802:11826   */\n      tag_309\n        /* \"#utility.yul\":11820:11825   */\n      dup3\n        /* \"#utility.yul\":11802:11826   */\n      tag_310\n      jump\t// in\n    tag_309:\n        /* \"#utility.yul\":11791:11826   */\n      swap1\n      pop\n        /* \"#utility.yul\":11736:11832   */\n      swap2\n      swap1\n      pop\n      jump\t// out\n        /* \"#utility.yul\":11838:11942   */\n    tag_201:\n        /* \"#utility.yul\":11883:11890   */\n      0x00\n        /* \"#utility.yul\":11912:11936   */\n      tag_312\n        /* \"#utility.yul\":11930:11935   */\n      dup3\n        /* \"#utility.yul\":11912:11936   */\n      tag_310\n      jump\t// in\n    tag_312:\n        /* \"#utility.yul\":11901:11936   */\n      swap1\n      pop\n        /* \"#utility.yul\":11838:11942   */\n      swap2\n      swap1\n      pop\n      jump\t// out\n        /* \"#utility.yul\":11948:12038   */\n    tag_209:\n        /* \"#utility.yul\":11982:11989   */\n      0x00\n        /* \"#utility.yul\":12025:12030   */\n      dup2\n        /* \"#utility.yul\":12018:12031   */\n      iszero\n        /* \"#utility.yul\":12011:12032   */\n      iszero\n        /* \"#utility.yul\":12000:12032   */\n      swap1\n      pop\n        /* \"#utility.yul\":11948:12038   */\n      swap2\n      swap1\n      pop\n      jump\t// out\n        /* \"#utility.yul\":12044:12170   */\n    tag_310:\n        /* \"#utility.yul\":12081:12088   */\n      0x00\n        /* \"#utility.yul\":12121:12163   */\n      0xffffffffffffffffffffffffffffffffffffffff\n        /* \"#utility.yul\":12114:12119   */\n      dup3\n        /* \"#utility.yul\":12110:12164   */\n      and\n        /* \"#utility.yul\":12099:12164   */\n      swap1\n      pop\n        /* \"#utility.yul\":12044:12170   */\n      swap2\n      swap1\n      pop\n      jump\t// out\n        /* \"#utility.yul\":12176:12253   */\n    tag_258:\n        /* \"#utility.yul\":12213:12220   */\n      0x00\n        /* \"#utility.yul\":12242:12247   */\n      dup2\n        /* \"#utility.yul\":12231:12247   */\n      swap1\n      pop\n        /* \"#utility.yul\":12176:12253   */\n      swap2\n      swap1\n      pop\n      jump\t// out\n        /* \"#utility.yul\":12259:12413   */\n    tag_161:\n        /* \"#utility.yul\":12343:12349   */\n      dup3\n        /* \"#utility.yul\":12338:12341   */\n      dup2\n        /* \"#utility.yul\":12333:12336   */\n      dup4\n        /* \"#utility.yul\":12320:12350   */\n      calldatacopy\n        /* \"#utility.yul\":12405:12406   */\n      0x00\n        /* \"#utility.yul\":12396:12402   */\n      dup4\n        /* \"#utility.yul\":12391:12394   */\n      dup4\n        /* \"#utility.yul\":12387:12403   */\n      add\n        /* \"#utility.yul\":12380:12407   */\n      mstore\n        /* \"#utility.yul\":12259:12413   */\n      pop\n      pop\n      pop\n      jump\t// out\n        /* \"#utility.yul\":12419:12726   */\n    tag_217:\n        /* \"#utility.yul\":12487:12488   */\n      0x00\n        /* \"#utility.yul\":12497:12610   */\n    tag_318:\n        /* \"#utility.yul\":12511:12517   */\n      dup4\n        /* \"#utility.yul\":12508:12509   */\n      dup2\n        /* \"#utility.yul\":12505:12518   */\n      lt\n        /* \"#utility.yul\":12497:12610   */\n      iszero\n      tag_320\n      jumpi\n        /* \"#utility.yul\":12596:12597   */\n      dup1\n        /* \"#utility.yul\":12591:12594   */\n      dup3\n        /* \"#utility.yul\":12587:12598   */\n      add\n        /* \"#utility.yul\":12581:12599   */\n      mload\n        /* \"#utility.yul\":12577:12578   */\n      dup2\n        /* \"#utility.yul\":12572:12575   */\n      dup5\n        /* \"#utility.yul\":12568:12579   */\n      add\n        /* \"#utility.yul\":12561:12600   */\n      mstore\n        /* \"#utility.yul\":12533:12535   */\n      0x20\n        /* \"#utility.yul\":12530:12531   */\n      dup2\n        /* \"#utility.yul\":12526:12536   */\n      add\n        /* \"#utility.yul\":12521:12536   */\n      swap1\n      pop\n        /* \"#utility.yul\":12497:12610   */\n      jump(tag_318)\n    tag_320:\n        /* \"#utility.yul\":12628:12634   */\n      dup4\n        /* \"#utility.yul\":12625:12626   */\n      dup2\n        /* \"#utility.yul\":12622:12635   */\n      gt\n        /* \"#utility.yul\":12619:12720   */\n      iszero\n      tag_321\n      jumpi\n        /* \"#utility.yul\":12708:12709   */\n      0x00\n        /* \"#utility.yul\":12699:12705   */\n      dup5\n        /* \"#utility.yul\":12694:12697   */\n      dup5\n        /* \"#utility.yul\":12690:12706   */\n      add\n        /* \"#utility.yul\":12683:12710   */\n      mstore\n        /* \"#utility.yul\":12619:12720   */\n    tag_321:\n        /* \"#utility.yul\":12468:12726   */\n      pop\n        /* \"#utility.yul\":12419:12726   */\n      pop\n      pop\n      pop\n      jump\t// out\n        /* \"#utility.yul\":12732:13052   */\n    tag_135:\n        /* \"#utility.yul\":12776:12782   */\n      0x00\n        /* \"#utility.yul\":12813:12814   */\n      0x02\n        /* \"#utility.yul\":12807:12811   */\n      dup3\n        /* \"#utility.yul\":12803:12815   */\n      div\n        /* \"#utility.yul\":12793:12815   */\n      swap1\n      pop\n        /* \"#utility.yul\":12860:12861   */\n      0x01\n        /* \"#utility.yul\":12854:12858   */\n      dup3\n        /* \"#utility.yul\":12850:12862   */\n      and\n        /* \"#utility.yul\":12881:12899   */\n      dup1\n        /* \"#utility.yul\":12871:12952   */\n      tag_323\n      jumpi\n        /* \"#utility.yul\":12937:12941   */\n      0x7f\n        /* \"#utility.yul\":12929:12935   */\n      dup3\n        /* \"#utility.yul\":12925:12942   */\n      and\n        /* \"#utility.yul\":12915:12942   */\n      swap2\n      pop\n        /* \"#utility.yul\":12871:12952   */\n    tag_323:\n        /* \"#utility.yul\":12999:13001   */\n      0x20\n        /* \"#utility.yul\":12991:12997   */\n      dup3\n        /* \"#utility.yul\":12988:13002   */\n      lt\n        /* \"#utility.yul\":12968:12986   */\n      dup2\n        /* \"#utility.yul\":12965:13003   */\n      eq\n        /* \"#utility.yul\":12962:13046   */\n      iszero\n      tag_324\n      jumpi\n        /* \"#utility.yul\":13018:13036   */\n      tag_325\n      tag_326\n      jump\t// in\n    tag_325:\n        /* \"#utility.yul\":12962:13046   */\n    tag_324:\n        /* \"#utility.yul\":12783:13052   */\n      pop\n        /* \"#utility.yul\":12732:13052   */\n      swap2\n      swap1\n      pop\n      jump\t// out\n        /* \"#utility.yul\":13058:13339   */\n    tag_287:\n        /* \"#utility.yul\":13141:13168   */\n      tag_328\n        /* \"#utility.yul\":13163:13167   */\n      dup3\n        /* \"#utility.yul\":13141:13168   */\n      tag_219\n      jump\t// in\n    tag_328:\n        /* \"#utility.yul\":13133:13139   */\n      dup2\n        /* \"#utility.yul\":13129:13169   */\n      add\n        /* \"#utility.yul\":13271:13277   */\n      dup2\n        /* \"#utility.yul\":13259:13269   */\n      dup2\n        /* \"#utility.yul\":13256:13278   */\n      lt\n        /* \"#utility.yul\":13235:13253   */\n      0xffffffffffffffff\n        /* \"#utility.yul\":13223:13233   */\n      dup3\n        /* \"#utility.yul\":13220:13254   */\n      gt\n        /* \"#utility.yul\":13217:13279   */\n      or\n        /* \"#utility.yul\":13214:13302   */\n      iszero\n      tag_329\n      jumpi\n        /* \"#utility.yul\":13282:13300   */\n      tag_330\n      tag_292\n      jump\t// in\n    tag_330:\n        /* \"#utility.yul\":13214:13302   */\n    tag_329:\n        /* \"#utility.yul\":13322:13332   */\n      dup1\n        /* \"#utility.yul\":13318:13320   */\n      0x40\n        /* \"#utility.yul\":13311:13333   */\n      mstore\n        /* \"#utility.yul\":13101:13339   */\n      pop\n        /* \"#utility.yul\":13058:13339   */\n      pop\n      pop\n      jump\t// out\n        /* \"#utility.yul\":13345:13578   */\n    tag_94:\n        /* \"#utility.yul\":13384:13387   */\n      0x00\n        /* \"#utility.yul\":13407:13431   */\n      tag_332\n        /* \"#utility.yul\":13425:13430   */\n      dup3\n        /* \"#utility.yul\":13407:13431   */\n      tag_258\n      jump\t// in\n    tag_332:\n        /* \"#utility.yul\":13398:13431   */\n      swap2\n      pop\n        /* \"#utility.yul\":13453:13519   */\n      0xffffffffffffffffffffffffffffffffffffffffffffffffffffffffffffffff\n        /* \"#utility.yul\":13446:13451   */\n      dup3\n        /* \"#utility.yul\":13443:13520   */\n      eq\n        /* \"#utility.yul\":13440:13543   */\n      iszero\n      tag_333\n      jumpi\n        /* \"#utility.yul\":13523:13541   */\n      tag_334\n      tag_301\n      jump\t// in\n    tag_334:\n        /* \"#utility.yul\":13440:13543   */\n    tag_333:\n        /* \"#utility.yul\":13570:13571   */\n      0x01\n        /* \"#utility.yul\":13563:13568   */\n      dup3\n        /* \"#utility.yul\":13559:13572   */\n      add\n        /* \"#utility.yul\":13552:13572   */\n      swap1\n      pop\n        /* \"#utility.yul\":13345:13578   */\n      swap2\n      swap1\n      pop\n      jump\t// out\n        /* \"#utility.yul\":13584:13764   */\n    tag_301:\n        /* \"#utility.yul\":13632:13709   */\n      0x4e487b7100000000000000000000000000000000000000000000000000000000\n        /* \"#utility.yul\":13629:13630   */\n      0x00\n        /* \"#utility.yul\":13622:13710   */\n      mstore\n        /* \"#utility.yul\":13729:13733   */\n      0x11\n        /* \"#utility.yul\":13726:13727   */\n      0x04\n        /* \"#utility.yul\":13719:13734   */\n      mstore\n        /* \"#utility.yul\":13753:13757   */\n      0x24\n        /* \"#utility.yul\":13750:13751   */\n      0x00\n        /* \"#utility.yul\":13743:13758   */\n      revert\n        /* \"#utility.yul\":13770:13950   */\n    tag_307:\n        /* \"#utility.yul\":13818:13895   */\n      0x4e487b7100000000000000000000000000000000000000000000000000000000\n        /* \"#utility.yul\":13815:13816   */\n      0x00\n        /* \"#utility.yul\":13808:13896   */\n      mstore\n        /* \"#utility.yul\":13915:13919   */\n      0x12\n        /* \"#utility.yul\":13912:13913   */\n      0x04\n        /* \"#utility.yul\":13905:13920   */\n      mstore\n        /* \"#utility.yul\":13939:13943   */\n      0x24\n        /* \"#utility.yul\":13936:13937   */\n      0x00\n        /* \"#utility.yul\":13929:13944   */\n      revert\n        /* \"#utility.yul\":13956:14136   */\n    tag_326:\n        /* \"#utility.yul\":14004:14081   */\n      0x4e487b7100000000000000000000000000000000000000000000000000000000\n        /* \"#utility.yul\":14001:14002   */\n      0x00\n        /* \"#utility.yul\":13994:14082   */\n      mstore\n        /* \"#utility.yul\":14101:14105   */\n      0x22\n        /* \"#utility.yul\":14098:14099   */\n      0x04\n        /* \"#utility.yul\":14091:14106   */\n      mstore\n        /* \"#utility.yul\":14125:14129   */\n      0x24\n        /* \"#utility.yul\":14122:14123   */\n      0x00\n        /* \"#utility.yul\":14115:14130   */\n      revert\n        /* \"#utility.yul\":14142:14322   */\n    tag_292:\n        /* \"#utility.yul\":14190:14267   */\n      0x4e487b7100000000000000000000000000000000000000000000000000000000\n        /* \"#utility.yul\":14187:14188   */\n      0x00\n        /* \"#utility.yul\":14180:14268   */\n      mstore\n        /* \"#utility.yul\":14287:14291   */\n      0x41\n        /* \"#utility.yul\":14284:14285   */\n      0x04\n        /* \"#utility.yul\":14277:14292   */\n      mstore\n        /* \"#utility.yul\":14311:14315   */\n      0x24\n        /* \"#utility.yul\":14308:14309   */\n      0x00\n        /* \"#utility.yul\":14301:14316   */\n      revert\n        /* \"#utility.yul\":14328:14445   */\n    tag_174:\n        /* \"#utility.yul\":14437:14438   */\n      0x00\n        /* \"#utility.yul\":14434:14435   */\n      dup1\n        /* \"#utility.yul\":14427:14439   */\n      revert\n        /* \"#utility.yul\":14451:14568   */\n    tag_159:\n        /* \"#utility.yul\":14560:14561   */\n      0x00\n        /* \"#utility.yul\":14557:14558   */\n      dup1\n        /* \"#utility.yul\":14550:14562   */\n      revert\n        /* \"#utility.yul\":14574:14691   */\n    tag_190:\n        /* \"#utility.yul\":14683:14684   */\n      0x00\n        /* \"#utility.yul\":14680:14681   */\n      dup1\n        /* \"#utility.yul\":14673:14685   */\n      revert\n        /* \"#utility.yul\":14697:14814   */\n    tag_183:\n        /* \"#utility.yul\":14806:14807   */\n      0x00\n        /* \"#utility.yul\":14803:14804   */\n      dup1\n        /* \"#utility.yul\":14796:14808   */\n      revert\n        /* \"#utility.yul\":14820:14922   */\n    tag_219:\n        /* \"#utility.yul\":14861:14867   */\n      0x00\n        /* \"#utility.yul\":14912:14914   */\n      0x1f\n        /* \"#utility.yul\":14908:14915   */\n      not\n        /* \"#utility.yul\":14903:14905   */\n      0x1f\n        /* \"#utility.yul\":14896:14901   */\n      dup4\n        /* \"#utility.yul\":14892:14906   */\n      add\n        /* \"#utility.yul\":14888:14916   */\n      and\n        /* \"#utility.yul\":14878:14916   */\n      swap1\n      pop\n        /* \"#utility.yul\":14820:14922   */\n      swap2\n      swap1\n      pop\n      jump\t// out\n        /* \"#utility.yul\":14928:15150   */\n    tag_224:\n        /* \"#utility.yul\":15068:15102   */\n      0x4f6e6c79206d616e616765722063616e2063616c6c20746869732066756e6374\n        /* \"#utility.yul\":15064:15065   */\n      0x00\n        /* \"#utility.yul\":15056:15062   */\n      dup3\n        /* \"#utility.yul\":15052:15066   */\n      add\n        /* \"#utility.yul\":15045:15103   */\n      mstore\n        /* \"#utility.yul\":15137:15142   */\n      0x696f6e0000000000000000000000000000000000000000000000000000000000\n        /* \"#utility.yul\":15132:15134   */\n      0x20\n        /* \"#utility.yul\":15124:15130   */\n      dup3\n        /* \"#utility.yul\":15120:15135   */\n      add\n        /* \"#utility.yul\":15113:15143   */\n      mstore\n        /* \"#utility.yul\":14928:15150   */\n      pop\n      jump\t// out\n        /* \"#utility.yul\":15156:15325   */\n    tag_229:\n        /* \"#utility.yul\":15296:15317   */\n      0x446561646c696e65206861732070617373656400000000000000000000000000\n        /* \"#utility.yul\":15292:15293   */\n      0x00\n        /* \"#utility.yul\":15284:15290   */\n      dup3\n        /* \"#utility.yul\":15280:15294   */\n      add\n        /* \"#utility.yul\":15273:15318   */\n      mstore\n        /* \"#utility.yul\":15156:15325   */\n      pop\n      jump\t// out\n        /* \"#utility.yul\":15331:15512   */\n    tag_234:\n        /* \"#utility.yul\":15471:15504   */\n      0x4d696e696d756d20636f6e747269627574696f6e206973206e6f74206d657400\n        /* \"#utility.yul\":15467:15468   */\n      0x00\n        /* \"#utility.yul\":15459:15465   */\n      dup3\n        /* \"#utility.yul\":15455:15469   */\n      add\n        /* \"#utility.yul\":15448:15505   */\n      mstore\n        /* \"#utility.yul\":15331:15512   */\n      pop\n      jump\t// out\n        /* \"#utility.yul\":15518:15698   */\n    tag_239:\n        /* \"#utility.yul\":15658:15690   */\n      0x546865207265717565737420686173206265656e20636f6d706c657465640000\n        /* \"#utility.yul\":15654:15655   */\n      0x00\n        /* \"#utility.yul\":15646:15652   */\n      dup3\n        /* \"#utility.yul\":15642:15656   */\n      add\n        /* \"#utility.yul\":15635:15691   */\n      mstore\n        /* \"#utility.yul\":15518:15698   */\n      pop\n      jump\t// out\n        /* \"#utility.yul\":15704:15879   */\n    tag_244:\n        /* \"#utility.yul\":15844:15871   */\n      0x596f75206d757374206265206120636f6e7472696275746f7200000000000000\n        /* \"#utility.yul\":15840:15841   */\n      0x00\n        /* \"#utility.yul\":15832:15838   */\n      dup3\n        /* \"#utility.yul\":15828:15842   */\n      add\n        /* \"#utility.yul\":15821:15872   */\n      mstore\n        /* \"#utility.yul\":15704:15879   */\n      pop\n      jump\t// out\n        /* \"#utility.yul\":15885:16066   */\n    tag_249:\n        /* \"#utility.yul\":16025:16058   */\n      0x596f7520617265206e6f7420656c696769626c6520666f7220726566756e6400\n        /* \"#utility.yul\":16021:16022   */\n      0x00\n        /* \"#utility.yul\":16013:16019   */\n      dup3\n        /* \"#utility.yul\":16009:16023   */\n      add\n        /* \"#utility.yul\":16002:16059   */\n      mstore\n        /* \"#utility.yul\":15885:16066   */\n      pop\n      jump\t// out\n        /* \"#utility.yul\":16072:16244   */\n    tag_254:\n        /* \"#utility.yul\":16212:16236   */\n      0x596f75206861766520616c726561647920766f74656400000000000000000000\n        /* \"#utility.yul\":16208:16209   */\n      0x00\n        /* \"#utility.yul\":16200:16206   */\n      dup3\n        /* \"#utility.yul\":16196:16210   */\n      add\n        /* \"#utility.yul\":16189:16237   */\n      mstore\n        /* \"#utility.yul\":16072:16244   */\n      pop\n      jump\t// out\n        /* \"#utility.yul\":16250:16372   */\n    tag_165:\n        /* \"#utility.yul\":16323:16347   */\n      tag_352\n        /* \"#utility.yul\":16341:16346   */\n      dup2\n        /* \"#utility.yul\":16323:16347   */\n      tag_205\n      jump\t// in\n    tag_352:\n        /* \"#utility.yul\":16316:16321   */\n      dup2\n        /* \"#utility.yul\":16313:16348   */\n      eq\n        /* \"#utility.yul\":16303:16366   */\n      tag_353\n      jumpi\n        /* \"#utility.yul\":16362:16363   */\n      0x00\n        /* \"#utility.yul\":16359:16360   */\n      dup1\n        /* \"#utility.yul\":16352:16364   */\n      revert\n        /* \"#utility.yul\":16303:16366   */\n    tag_353:\n        /* \"#utility.yul\":16250:16372   */\n      pop\n      jump\t// out\n        /* \"#utility.yul\":16378:16516   */\n    tag_169:\n        /* \"#utility.yul\":16459:16491   */\n      tag_355\n        /* \"#utility.yul\":16485:16490   */\n      dup2\n        /* \"#utility.yul\":16459:16491   */\n      tag_201\n      jump\t// in\n    tag_355:\n        /* \"#utility.yul\":16452:16457   */\n      dup2\n        /* \"#utility.yul\":16449:16492   */\n      eq\n        /* \"#utility.yul\":16439:16510   */\n      tag_356\n      jumpi\n        /* \"#utility.yul\":16506:16507   */\n      0x00\n        /* \"#utility.yul\":16503:16504   */\n      dup1\n        /* \"#utility.yul\":16496:16508   */\n      revert\n        /* \"#utility.yul\":16439:16510   */\n    tag_356:\n        /* \"#utility.yul\":16378:16516   */\n      pop\n      jump\t// out\n        /* \"#utility.yul\":16522:16644   */\n    tag_179:\n        /* \"#utility.yul\":16595:16619   */\n      tag_358\n        /* \"#utility.yul\":16613:16618   */\n      dup2\n        /* \"#utility.yul\":16595:16619   */\n      tag_258\n      jump\t// in\n    tag_358:\n        /* \"#utility.yul\":16588:16593   */\n      dup2\n        /* \"#utility.yul\":16585:16620   */\n      eq\n        /* \"#utility.yul\":16575:16638   */\n      tag_359\n      jumpi\n        /* \"#utility.yul\":16634:16635   */\n      0x00\n        /* \"#utility.yul\":16631:16632   */\n      dup1\n        /* \"#utility.yul\":16624:16636   */\n      revert\n        /* \"#utility.yul\":16575:16638   */\n    tag_359:\n        /* \"#utility.yul\":16522:16644   */\n      pop\n      jump\t// out\n\n    auxdata: 0xa26469706673582212203df6472a405bfc24ec89505f67d38cd2ab324eae3503cc1981c59b5696c4947364736f6c63430008070033\n}\n",
				"bytecode": {
					"linkReferences": {},
					"object": "60806040523480156200001157600080fd5b5060405162001743380380620017438339818101604052810190620000379190620000ba565b8160048190555080426200004c919062000101565b600381905550606460028190555033600160006101000a81548173ffffffffffffffffffffffffffffffffffffffff021916908373ffffffffffffffffffffffffffffffffffffffff1602179055505050620001b6565b600081519050620000b4816200019c565b92915050565b60008060408385031215620000d457620000d362000197565b5b6000620000e485828601620000a3565b9250506020620000f785828601620000a3565b9150509250929050565b60006200010e826200015e565b91506200011b836200015e565b9250827fffffffffffffffffffffffffffffffffffffffffffffffffffffffffffffffff0382111562000153576200015262000168565b5b828201905092915050565b6000819050919050565b7f4e487b7100000000000000000000000000000000000000000000000000000000600052601160045260246000fd5b600080fd5b620001a7816200015e565b8114620001b357600080fd5b50565b61157d80620001c66000396000f3fe6080604052600436106100e85760003560e01c80635114cb521161008a5780639fb42b1f116100595780639fb42b1f146102b3578063aaffadf3146102de578063c59ee1dc14610309578063d4b8399214610334576100e8565b80635114cb5214610207578063590e1ae3146102305780636f9fb98a1461024757806381d12c5814610272576100e8565b80633eb7647b116100c65780633eb7647b1461015f578063481c6a75146101885780634cb6f4a5146101b35780634e260f6f146101dc576100e8565b806306e99fef146100ed5780631f6d4942146100f757806329dcb0cf14610134575b600080fd5b6100f561035f565b005b34801561010357600080fd5b5061011e60048036038101906101199190610cf8565b6104b8565b60405161012b9190611080565b60405180910390f35b34801561014057600080fd5b506101496104d0565b6040516101569190611080565b60405180910390f35b34801561016b57600080fd5b5061018660048036038101906101819190610d25565b6104d6565b005b34801561019457600080fd5b5061019d610629565b6040516101aa9190610f2b565b60405180910390f35b3480156101bf57600080fd5b506101da60048036038101906101d59190610d94565b61064f565b005b3480156101e857600080fd5b506101f16107f4565b6040516101fe9190611080565b60405180910390f35b34801561021357600080fd5b5061022e60048036038101906102299190610d94565b6107fa565b005b34801561023c57600080fd5b5061024561092c565b005b34801561025357600080fd5b5061025c610a9b565b6040516102699190611080565b60405180910390f35b34801561027e57600080fd5b5061029960048036038101906102949190610d94565b610aa3565b6040516102aa959493929190610f46565b60405180910390f35b3480156102bf57600080fd5b506102c8610b8e565b6040516102d59190611080565b60405180910390f35b3480156102ea57600080fd5b506102f3610b94565b6040516103009190611080565b60405180910390f35b34801561031557600080fd5b5061031e610b9a565b60405161032b9190611080565b60405180910390f35b34801561034057600080fd5b50610349610ba0565b6040516103569190611080565b60405180910390f35b60035442106103a3576040517f08c379a000000000000000000000000000000000000000000000000000000000815260040161039a90610fc0565b60405180910390fd5b6002543410156103e8576040517f08c379a00000000000000000000000000000000000000000000000000000000081526004016103df90610fe0565b60405180910390fd5b60008060003373ffffffffffffffffffffffffffffffffffffffff1673ffffffffffffffffffffffffffffffffffffffff168152602001908152602001600020541415610448576006600081548092919061044290611293565b91905055505b346000803373ffffffffffffffffffffffffffffffffffffffff1673ffffffffffffffffffffffffffffffffffffffff1681526020019081526020016000206000828254610496919061110d565b9250508190555034600560008282546104af919061110d565b92505081905550565b60006020528060005260406000206000915090505481565b60035481565b600160009054906101000a900473ffffffffffffffffffffffffffffffffffffffff1673ffffffffffffffffffffffffffffffffffffffff163373ffffffffffffffffffffffffffffffffffffffff1614610566576040517f08c379a000000000000000000000000000000000000000000000000000000000815260040161055d90610fa0565b60405180910390fd5b600060076000600854815260200190815260200160002090506008600081548092919061059290611293565b9190505550838160000190805190602001906105af929190610ba6565b50828160010160006101000a81548173ffffffffffffffffffffffffffffffffffffffff021916908373ffffffffffffffffffffffffffffffffffffffff16021790555081816002018190555060008160030160006101000a81548160ff0219169083151502179055506000816004018190555050505050565b600160009054906101000a900473ffffffffffffffffffffffffffffffffffffffff1681565b60008060003373ffffffffffffffffffffffffffffffffffffffff1673ffffffffffffffffffffffffffffffffffffffff16815260200190815260200160002054116106d0576040517f08c379a00000000000000000000000000000000000000000000000000000000081526004016106c790611020565b60405180910390fd5b6000600760008381526020019081526020016000209050600015158160050160003373ffffffffffffffffffffffffffffffffffffffff1673ffffffffffffffffffffffffffffffffffffffff16815260200190815260200160002060009054906101000a900460ff1615151461077c576040517f08c379a000000000000000000000000000000000000000000000000000000000815260040161077390611060565b60405180910390fd5b60018160050160003373ffffffffffffffffffffffffffffffffffffffff1673ffffffffffffffffffffffffffffffffffffffff16815260200190815260200160002060006101000a81548160ff0219169083151502179055508060040160008154809291906107eb90611293565b91905055505050565b60065481565b600160009054906101000a900473ffffffffffffffffffffffffffffffffffffffff1673ffffffffffffffffffffffffffffffffffffffff163373ffffffffffffffffffffffffffffffffffffffff161461088a576040517f08c379a000000000000000000000000000000000000000000000000000000000815260040161088190610fa0565b60405180910390fd5b600454600554101561089b57600080fd5b6000600760008381526020019081526020016000209050600015158160030160009054906101000a900460ff1615151461090a576040517f08c379a000000000000000000000000000000000000000000000000000000000815260040161090190611000565b60405180910390fd5b60026006546109199190611163565b81600401541161092857600080fd5b5050565b600354421180156109405750600454600554105b61097f576040517f08c379a000000000000000000000000000000000000000000000000000000000815260040161097690611040565b60405180910390fd5b60008060003373ffffffffffffffffffffffffffffffffffffffff1673ffffffffffffffffffffffffffffffffffffffff16815260200190815260200160002054116109ca57600080fd5b60003390508073ffffffffffffffffffffffffffffffffffffffff166108fc6000803373ffffffffffffffffffffffffffffffffffffffff1673ffffffffffffffffffffffffffffffffffffffff168152602001908152602001600020549081150290604051600060405180830381858888f19350505050158015610a53573d6000803e3d6000fd5b5060008060003373ffffffffffffffffffffffffffffffffffffffff1673ffffffffffffffffffffffffffffffffffffffff1681526020019081526020016000208190555050565b600047905090565b6007602052806000526040600020600091509050806000018054610ac690611230565b80601f0160208091040260200160405190810160405280929190818152602001828054610af290611230565b8015610b3f5780601f10610b1457610100808354040283529160200191610b3f565b820191906000526020600020905b815481529060010190602001808311610b2257829003601f168201915b5050505050908060010160009054906101000a900473ffffffffffffffffffffffffffffffffffffffff16908060020154908060030160009054906101000a900460ff16908060040154905085565b60085481565b60025481565b60055481565b60045481565b828054610bb290611230565b90600052602060002090601f016020900481019282610bd45760008555610c1b565b82601f10610bed57805160ff1916838001178555610c1b565b82800160010185558215610c1b579182015b82811115610c1a578251825591602001919060010190610bff565b5b509050610c289190610c2c565b5090565b5b80821115610c45576000816000905550600101610c2d565b5090565b6000610c5c610c57846110c0565b61109b565b905082815260208101848484011115610c7857610c7761139d565b5b610c838482856111ee565b509392505050565b600081359050610c9a81611502565b92915050565b600081359050610caf81611519565b92915050565b600082601f830112610cca57610cc9611398565b5b8135610cda848260208601610c49565b91505092915050565b600081359050610cf281611530565b92915050565b600060208284031215610d0e57610d0d6113a7565b5b6000610d1c84828501610c8b565b91505092915050565b600080600060608486031215610d3e57610d3d6113a7565b5b600084013567ffffffffffffffff811115610d5c57610d5b6113a2565b5b610d6886828701610cb5565b9350506020610d7986828701610ca0565b9250506040610d8a86828701610ce3565b9150509250925092565b600060208284031215610daa57610da96113a7565b5b6000610db884828501610ce3565b91505092915050565b610dca816111a6565b82525050565b610dd981611194565b82525050565b610de8816111b8565b82525050565b6000610df9826110f1565b610e0381856110fc565b9350610e138185602086016111fd565b610e1c816113ac565b840191505092915050565b6000610e346023836110fc565b9150610e3f826113bd565b604082019050919050565b6000610e576013836110fc565b9150610e628261140c565b602082019050919050565b6000610e7a601f836110fc565b9150610e8582611435565b602082019050919050565b6000610e9d601e836110fc565b9150610ea88261145e565b602082019050919050565b6000610ec06019836110fc565b9150610ecb82611487565b602082019050919050565b6000610ee3601f836110fc565b9150610eee826114b0565b602082019050919050565b6000610f066016836110fc565b9150610f11826114d9565b602082019050919050565b610f25816111e4565b82525050565b6000602082019050610f406000830184610dd0565b92915050565b600060a0820190508181036000830152610f608188610dee565b9050610f6f6020830187610dc1565b610f7c6040830186610f1c565b610f896060830185610ddf565b610f966080830184610f1c565b9695505050505050565b60006020820190508181036000830152610fb981610e27565b9050919050565b60006020820190508181036000830152610fd981610e4a565b9050919050565b60006020820190508181036000830152610ff981610e6d565b9050919050565b6000602082019050818103600083015261101981610e90565b9050919050565b6000602082019050818103600083015261103981610eb3565b9050919050565b6000602082019050818103600083015261105981610ed6565b9050919050565b6000602082019050818103600083015261107981610ef9565b9050919050565b60006020820190506110956000830184610f1c565b92915050565b60006110a56110b6565b90506110b18282611262565b919050565b6000604051905090565b600067ffffffffffffffff8211156110db576110da611369565b5b6110e4826113ac565b9050602081019050919050565b600081519050919050565b600082825260208201905092915050565b6000611118826111e4565b9150611123836111e4565b9250827fffffffffffffffffffffffffffffffffffffffffffffffffffffffffffffffff03821115611158576111576112dc565b5b828201905092915050565b600061116e826111e4565b9150611179836111e4565b9250826111895761118861130b565b5b828204905092915050565b600061119f826111c4565b9050919050565b60006111b1826111c4565b9050919050565b60008115159050919050565b600073ffffffffffffffffffffffffffffffffffffffff82169050919050565b6000819050919050565b82818337600083830152505050565b60005b8381101561121b578082015181840152602081019050611200565b8381111561122a576000848401525b50505050565b6000600282049050600182168061124857607f821691505b6020821081141561125c5761125b61133a565b5b50919050565b61126b826113ac565b810181811067ffffffffffffffff8211171561128a57611289611369565b5b80604052505050565b600061129e826111e4565b91507fffffffffffffffffffffffffffffffffffffffffffffffffffffffffffffffff8214156112d1576112d06112dc565b5b600182019050919050565b7f4e487b7100000000000000000000000000000000000000000000000000000000600052601160045260246000fd5b7f4e487b7100000000000000000000000000000000000000000000000000000000600052601260045260246000fd5b7f4e487b7100000000000000000000000000000000000000000000000000000000600052602260045260246000fd5b7f4e487b7100000000000000000000000000000000000000000000000000000000600052604160045260246000fd5b600080fd5b600080fd5b600080fd5b600080fd5b6000601f19601f8301169050919050565b7f4f6e6c79206d616e616765722063616e2063616c6c20746869732066756e637460008201527f696f6e0000000000000000000000000000000000000000000000000000000000602082015250565b7f446561646c696e65206861732070617373656400000000000000000000000000600082015250565b7f4d696e696d756d20636f6e747269627574696f6e206973206e6f74206d657400600082015250565b7f546865207265717565737420686173206265656e20636f6d706c657465640000600082015250565b7f596f75206d757374206265206120636f6e7472696275746f7200000000000000600082015250565b7f596f7520617265206e6f7420656c696769626c6520666f7220726566756e6400600082015250565b7f596f75206861766520616c726561647920766f74656400000000000000000000600082015250565b61150b81611194565b811461151657600080fd5b50565b611522816111a6565b811461152d57600080fd5b50565b611539816111e4565b811461154457600080fd5b5056fea26469706673582212203df6472a405bfc24ec89505f67d38cd2ab324eae3503cc1981c59b5696c4947364736f6c63430008070033",
					"opcodes": "PUSH1 0x80 PUSH1 0x40 MSTORE CALLVALUE DUP1 ISZERO PUSH3 0x11 JUMPI PUSH1 0x0 DUP1 REVERT JUMPDEST POP PUSH1 0x40 MLOAD PUSH3 0x1743 CODESIZE SUB DUP1 PUSH3 0x1743 DUP4 CODECOPY DUP2 DUP2 ADD PUSH1 0x40 MSTORE DUP2 ADD SWAP1 PUSH3 0x37 SWAP2 SWAP1 PUSH3 0xBA JUMP JUMPDEST DUP2 PUSH1 0x4 DUP2 SWAP1 SSTORE POP DUP1 TIMESTAMP PUSH3 0x4C SWAP2 SWAP1 PUSH3 0x101 JUMP JUMPDEST PUSH1 0x3 DUP2 SWAP1 SSTORE POP PUSH1 0x64 PUSH1 0x2 DUP2 SWAP1 SSTORE POP CALLER PUSH1 0x1 PUSH1 0x0 PUSH2 0x100 EXP DUP2 SLOAD DUP2 PUSH20 0xFFFFFFFFFFFFFFFFFFFFFFFFFFFFFFFFFFFFFFFF MUL NOT AND SWAP1 DUP4 PUSH20 0xFFFFFFFFFFFFFFFFFFFFFFFFFFFFFFFFFFFFFFFF AND MUL OR SWAP1 SSTORE POP POP POP PUSH3 0x1B6 JUMP JUMPDEST PUSH1 0x0 DUP2 MLOAD SWAP1 POP PUSH3 0xB4 DUP2 PUSH3 0x19C JUMP JUMPDEST SWAP3 SWAP2 POP POP JUMP JUMPDEST PUSH1 0x0 DUP1 PUSH1 0x40 DUP4 DUP6 SUB SLT ISZERO PUSH3 0xD4 JUMPI PUSH3 0xD3 PUSH3 0x197 JUMP JUMPDEST JUMPDEST PUSH1 0x0 PUSH3 0xE4 DUP6 DUP3 DUP7 ADD PUSH3 0xA3 JUMP JUMPDEST SWAP3 POP POP PUSH1 0x20 PUSH3 0xF7 DUP6 DUP3 DUP7 ADD PUSH3 0xA3 JUMP JUMPDEST SWAP2 POP POP SWAP3 POP SWAP3 SWAP1 POP JUMP JUMPDEST PUSH1 0x0 PUSH3 0x10E DUP3 PUSH3 0x15E JUMP JUMPDEST SWAP2 POP PUSH3 0x11B DUP4 PUSH3 0x15E JUMP JUMPDEST SWAP3 POP DUP3 PUSH32 0xFFFFFFFFFFFFFFFFFFFFFFFFFFFFFFFFFFFFFFFFFFFFFFFFFFFFFFFFFFFFFFFF SUB DUP3 GT ISZERO PUSH3 0x153 JUMPI PUSH3 0x152 PUSH3 0x168 JUMP JUMPDEST JUMPDEST DUP3 DUP3 ADD SWAP1 POP SWAP3 SWAP2 POP POP JUMP JUMPDEST PUSH1 0x0 DUP2 SWAP1 POP SWAP2 SWAP1 POP JUMP JUMPDEST PUSH32 0x4E487B7100000000000000000000000000000000000000000000000000000000 PUSH1 0x0 MSTORE PUSH1 0x11 PUSH1 0x4 MSTORE PUSH1 0x24 PUSH1 0x0 REVERT JUMPDEST PUSH1 0x0 DUP1 REVERT JUMPDEST PUSH3 0x1A7 DUP2 PUSH3 0x15E JUMP JUMPDEST DUP2 EQ PUSH3 0x1B3 JUMPI PUSH1 0x0 DUP1 REVERT JUMPDEST POP JUMP JUMPDEST PUSH2 0x157D DUP1 PUSH3 0x1C6 PUSH1 0x0 CODECOPY PUSH1 0x0 RETURN INVALID PUSH1 0x80 PUSH1 0x40 MSTORE PUSH1 0x4 CALLDATASIZE LT PUSH2 0xE8 JUMPI PUSH1 0x0 CALLDATALOAD PUSH1 0xE0 SHR DUP1 PUSH4 0x5114CB52 GT PUSH2 0x8A JUMPI DUP1 PUSH4 0x9FB42B1F GT PUSH2 0x59 JUMPI DUP1 PUSH4 0x9FB42B1F EQ PUSH2 0x2B3 JUMPI DUP1 PUSH4 0xAAFFADF3 EQ PUSH2 0x2DE JUMPI DUP1 PUSH4 0xC59EE1DC EQ PUSH2 0x309 JUMPI DUP1 PUSH4 0xD4B83992 EQ PUSH2 0x334 JUMPI PUSH2 0xE8 JUMP JUMPDEST DUP1 PUSH4 0x5114CB52 EQ PUSH2 0x207 JUMPI DUP1 PUSH4 0x590E1AE3 EQ PUSH2 0x230 JUMPI DUP1 PUSH4 0x6F9FB98A EQ PUSH2 0x247 JUMPI DUP1 PUSH4 0x81D12C58 EQ PUSH2 0x272 JUMPI PUSH2 0xE8 JUMP JUMPDEST DUP1 PUSH4 0x3EB7647B GT PUSH2 0xC6 JUMPI DUP1 PUSH4 0x3EB7647B EQ PUSH2 0x15F JUMPI DUP1 PUSH4 0x481C6A75 EQ PUSH2 0x188 JUMPI DUP1 PUSH4 0x4CB6F4A5 EQ PUSH2 0x1B3 JUMPI DUP1 PUSH4 0x4E260F6F EQ PUSH2 0x1DC JUMPI PUSH2 0xE8 JUMP JUMPDEST DUP1 PUSH4 0x6E99FEF EQ PUSH2 0xED JUMPI DUP1 PUSH4 0x1F6D4942 EQ PUSH2 0xF7 JUMPI DUP1 PUSH4 0x29DCB0CF EQ PUSH2 0x134 JUMPI JUMPDEST PUSH1 0x0 DUP1 REVERT JUMPDEST PUSH2 0xF5 PUSH2 0x35F JUMP JUMPDEST STOP JUMPDEST CALLVALUE DUP1 ISZERO PUSH2 0x103 JUMPI PUSH1 0x0 DUP1 REVERT JUMPDEST POP PUSH2 0x11E PUSH1 0x4 DUP1 CALLDATASIZE SUB DUP2 ADD SWAP1 PUSH2 0x119 SWAP2 SWAP1 PUSH2 0xCF8 JUMP JUMPDEST PUSH2 0x4B8 JUMP JUMPDEST PUSH1 0x40 MLOAD PUSH2 0x12B SWAP2 SWAP1 PUSH2 0x1080 JUMP JUMPDEST PUSH1 0x40 MLOAD DUP1 SWAP2 SUB SWAP1 RETURN JUMPDEST CALLVALUE DUP1 ISZERO PUSH2 0x140 JUMPI PUSH1 0x0 DUP1 REVERT JUMPDEST POP PUSH2 0x149 PUSH2 0x4D0 JUMP JUMPDEST PUSH1 0x40 MLOAD PUSH2 0x156 SWAP2 SWAP1 PUSH2 0x1080 JUMP JUMPDEST PUSH1 0x40 MLOAD DUP1 SWAP2 SUB SWAP1 RETURN JUMPDEST CALLVALUE DUP1 ISZERO PUSH2 0x16B JUMPI PUSH1 0x0 DUP1 REVERT JUMPDEST POP PUSH2 0x186 PUSH1 0x4 DUP1 CALLDATASIZE SUB DUP2 ADD SWAP1 PUSH2 0x181 SWAP2 SWAP1 PUSH2 0xD25 JUMP JUMPDEST PUSH2 0x4D6 JUMP JUMPDEST STOP JUMPDEST CALLVALUE DUP1 ISZERO PUSH2 0x194 JUMPI PUSH1 0x0 DUP1 REVERT JUMPDEST POP PUSH2 0x19D PUSH2 0x629 JUMP JUMPDEST PUSH1 0x40 MLOAD PUSH2 0x1AA SWAP2 SWAP1 PUSH2 0xF2B JUMP JUMPDEST PUSH1 0x40 MLOAD DUP1 SWAP2 SUB SWAP1 RETURN JUMPDEST CALLVALUE DUP1 ISZERO PUSH2 0x1BF JUMPI PUSH1 0x0 DUP1 REVERT JUMPDEST POP PUSH2 0x1DA PUSH1 0x4 DUP1 CALLDATASIZE SUB DUP2 ADD SWAP1 PUSH2 0x1D5 SWAP2 SWAP1 PUSH2 0xD94 JUMP JUMPDEST PUSH2 0x64F JUMP JUMPDEST STOP JUMPDEST CALLVALUE DUP1 ISZERO PUSH2 0x1E8 JUMPI PUSH1 0x0 DUP1 REVERT JUMPDEST POP PUSH2 0x1F1 PUSH2 0x7F4 JUMP JUMPDEST PUSH1 0x40 MLOAD PUSH2 0x1FE SWAP2 SWAP1 PUSH2 0x1080 JUMP JUMPDEST PUSH1 0x40 MLOAD DUP1 SWAP2 SUB SWAP1 RETURN JUMPDEST CALLVALUE DUP1 ISZERO PUSH2 0x213 JUMPI PUSH1 0x0 DUP1 REVERT JUMPDEST POP PUSH2 0x22E PUSH1 0x4 DUP1 CALLDATASIZE SUB DUP2 ADD SWAP1 PUSH2 0x229 SWAP2 SWAP1 PUSH2 0xD94 JUMP JUMPDEST PUSH2 0x7FA JUMP JUMPDEST STOP JUMPDEST CALLVALUE DUP1 ISZERO PUSH2 0x23C JUMPI PUSH1 0x0 DUP1 REVERT JUMPDEST POP PUSH2 0x245 PUSH2 0x92C JUMP JUMPDEST STOP JUMPDEST CALLVALUE DUP1 ISZERO PUSH2 0x253 JUMPI PUSH1 0x0 DUP1 REVERT JUMPDEST POP PUSH2 0x25C PUSH2 0xA9B JUMP JUMPDEST PUSH1 0x40 MLOAD PUSH2 0x269 SWAP2 SWAP1 PUSH2 0x1080 JUMP JUMPDEST PUSH1 0x40 MLOAD DUP1 SWAP2 SUB SWAP1 RETURN JUMPDEST CALLVALUE DUP1 ISZERO PUSH2 0x27E JUMPI PUSH1 0x0 DUP1 REVERT JUMPDEST POP PUSH2 0x299 PUSH1 0x4 DUP1 CALLDATASIZE SUB DUP2 ADD SWAP1 PUSH2 0x294 SWAP2 SWAP1 PUSH2 0xD94 JUMP JUMPDEST PUSH2 0xAA3 JUMP JUMPDEST PUSH1 0x40 MLOAD PUSH2 0x2AA SWAP6 SWAP5 SWAP4 SWAP3 SWAP2 SWAP1 PUSH2 0xF46 JUMP JUMPDEST PUSH1 0x40 MLOAD DUP1 SWAP2 SUB SWAP1 RETURN JUMPDEST CALLVALUE DUP1 ISZERO PUSH2 0x2BF JUMPI PUSH1 0x0 DUP1 REVERT JUMPDEST POP PUSH2 0x2C8 PUSH2 0xB8E JUMP JUMPDEST PUSH1 0x40 MLOAD PUSH2 0x2D5 SWAP2 SWAP1 PUSH2 0x1080 JUMP JUMPDEST PUSH1 0x40 MLOAD DUP1 SWAP2 SUB SWAP1 RETURN JUMPDEST CALLVALUE DUP1 ISZERO PUSH2 0x2EA JUMPI PUSH1 0x0 DUP1 REVERT JUMPDEST POP PUSH2 0x2F3 PUSH2 0xB94 JUMP JUMPDEST PUSH1 0x40 MLOAD PUSH2 0x300 SWAP2 SWAP1 PUSH2 0x1080 JUMP JUMPDEST PUSH1 0x40 MLOAD DUP1 SWAP2 SUB SWAP1 RETURN JUMPDEST CALLVALUE DUP1 ISZERO PUSH2 0x315 JUMPI PUSH1 0x0 DUP1 REVERT JUMPDEST POP PUSH2 0x31E PUSH2 0xB9A JUMP JUMPDEST PUSH1 0x40 MLOAD PUSH2 0x32B SWAP2 SWAP1 PUSH2 0x1080 JUMP JUMPDEST PUSH1 0x40 MLOAD DUP1 SWAP2 SUB SWAP1 RETURN JUMPDEST CALLVALUE DUP1 ISZERO PUSH2 0x340 JUMPI PUSH1 0x0 DUP1 REVERT JUMPDEST POP PUSH2 0x349 PUSH2 0xBA0 JUMP JUMPDEST PUSH1 0x40 MLOAD PUSH2 0x356 SWAP2 SWAP1 PUSH2 0x1080 JUMP JUMPDEST PUSH1 0x40 MLOAD DUP1 SWAP2 SUB SWAP1 RETURN JUMPDEST PUSH1 0x3 SLOAD TIMESTAMP LT PUSH2 0x3A3 JUMPI PUSH1 0x40 MLOAD PUSH32 0x8C379A000000000000000000000000000000000000000000000000000000000 DUP2 MSTORE PUSH1 0x4 ADD PUSH2 0x39A SWAP1 PUSH2 0xFC0 JUMP JUMPDEST PUSH1 0x40 MLOAD DUP1 SWAP2 SUB SWAP1 REVERT JUMPDEST PUSH1 0x2 SLOAD CALLVALUE LT ISZERO PUSH2 0x3E8 JUMPI PUSH1 0x40 MLOAD PUSH32 0x8C379A000000000000000000000000000000000000000000000000000000000 DUP2 MSTORE PUSH1 0x4 ADD PUSH2 0x3DF SWAP1 PUSH2 0xFE0 JUMP JUMPDEST PUSH1 0x40 MLOAD DUP1 SWAP2 SUB SWAP1 REVERT JUMPDEST PUSH1 0x0 DUP1 PUSH1 0x0 CALLER PUSH20 0xFFFFFFFFFFFFFFFFFFFFFFFFFFFFFFFFFFFFFFFF AND PUSH20 0xFFFFFFFFFFFFFFFFFFFFFFFFFFFFFFFFFFFFFFFF AND DUP2 MSTORE PUSH1 0x20 ADD SWAP1 DUP2 MSTORE PUSH1 0x20 ADD PUSH1 0x0 KECCAK256 SLOAD EQ ISZERO PUSH2 0x448 JUMPI PUSH1 0x6 PUSH1 0x0 DUP2 SLOAD DUP1 SWAP3 SWAP2 SWAP1 PUSH2 0x442 SWAP1 PUSH2 0x1293 JUMP JUMPDEST SWAP2 SWAP1 POP SSTORE POP JUMPDEST CALLVALUE PUSH1 0x0 DUP1 CALLER PUSH20 0xFFFFFFFFFFFFFFFFFFFFFFFFFFFFFFFFFFFFFFFF AND PUSH20 0xFFFFFFFFFFFFFFFFFFFFFFFFFFFFFFFFFFFFFFFF AND DUP2 MSTORE PUSH1 0x20 ADD SWAP1 DUP2 MSTORE PUSH1 0x20 ADD PUSH1 0x0 KECCAK256 PUSH1 0x0 DUP3 DUP3 SLOAD PUSH2 0x496 SWAP2 SWAP1 PUSH2 0x110D JUMP JUMPDEST SWAP3 POP POP DUP2 SWAP1 SSTORE POP CALLVALUE PUSH1 0x5 PUSH1 0x0 DUP3 DUP3 SLOAD PUSH2 0x4AF SWAP2 SWAP1 PUSH2 0x110D JUMP JUMPDEST SWAP3 POP POP DUP2 SWAP1 SSTORE POP JUMP JUMPDEST PUSH1 0x0 PUSH1 0x20 MSTORE DUP1 PUSH1 0x0 MSTORE PUSH1 0x40 PUSH1 0x0 KECCAK256 PUSH1 0x0 SWAP2 POP SWAP1 POP SLOAD DUP2 JUMP JUMPDEST PUSH1 0x3 SLOAD DUP2 JUMP JUMPDEST PUSH1 0x1 PUSH1 0x0 SWAP1 SLOAD SWAP1 PUSH2 0x100 EXP SWAP1 DIV PUSH20 0xFFFFFFFFFFFFFFFFFFFFFFFFFFFFFFFFFFFFFFFF AND PUSH20 0xFFFFFFFFFFFFFFFFFFFFFFFFFFFFFFFFFFFFFFFF AND CALLER PUSH20 0xFFFFFFFFFFFFFFFFFFFFFFFFFFFFFFFFFFFFFFFF AND EQ PUSH2 0x566 JUMPI PUSH1 0x40 MLOAD PUSH32 0x8C379A000000000000000000000000000000000000000000000000000000000 DUP2 MSTORE PUSH1 0x4 ADD PUSH2 0x55D SWAP1 PUSH2 0xFA0 JUMP JUMPDEST PUSH1 0x40 MLOAD DUP1 SWAP2 SUB SWAP1 REVERT JUMPDEST PUSH1 0x0 PUSH1 0x7 PUSH1 0x0 PUSH1 0x8 SLOAD DUP2 MSTORE PUSH1 0x20 ADD SWAP1 DUP2 MSTORE PUSH1 0x20 ADD PUSH1 0x0 KECCAK256 SWAP1 POP PUSH1 0x8 PUSH1 0x0 DUP2 SLOAD DUP1 SWAP3 SWAP2 SWAP1 PUSH2 0x592 SWAP1 PUSH2 0x1293 JUMP JUMPDEST SWAP2 SWAP1 POP SSTORE POP DUP4 DUP2 PUSH1 0x0 ADD SWAP1 DUP1 MLOAD SWAP1 PUSH1 0x20 ADD SWAP1 PUSH2 0x5AF SWAP3 SWAP2 SWAP1 PUSH2 0xBA6 JUMP JUMPDEST POP DUP3 DUP2 PUSH1 0x1 ADD PUSH1 0x0 PUSH2 0x100 EXP DUP2 SLOAD DUP2 PUSH20 0xFFFFFFFFFFFFFFFFFFFFFFFFFFFFFFFFFFFFFFFF MUL NOT AND SWAP1 DUP4 PUSH20 0xFFFFFFFFFFFFFFFFFFFFFFFFFFFFFFFFFFFFFFFF AND MUL OR SWAP1 SSTORE POP DUP2 DUP2 PUSH1 0x2 ADD DUP2 SWAP1 SSTORE POP PUSH1 0x0 DUP2 PUSH1 0x3 ADD PUSH1 0x0 PUSH2 0x100 EXP DUP2 SLOAD DUP2 PUSH1 0xFF MUL NOT AND SWAP1 DUP4 ISZERO ISZERO MUL OR SWAP1 SSTORE POP PUSH1 0x0 DUP2 PUSH1 0x4 ADD DUP2 SWAP1 SSTORE POP POP POP POP POP JUMP JUMPDEST PUSH1 0x1 PUSH1 0x0 SWAP1 SLOAD SWAP1 PUSH2 0x100 EXP SWAP1 DIV PUSH20 0xFFFFFFFFFFFFFFFFFFFFFFFFFFFFFFFFFFFFFFFF AND DUP2 JUMP JUMPDEST PUSH1 0x0 DUP1 PUSH1 0x0 CALLER PUSH20 0xFFFFFFFFFFFFFFFFFFFFFFFFFFFFFFFFFFFFFFFF AND PUSH20 0xFFFFFFFFFFFFFFFFFFFFFFFFFFFFFFFFFFFFFFFF AND DUP2 MSTORE PUSH1 0x20 ADD SWAP1 DUP2 MSTORE PUSH1 0x20 ADD PUSH1 0x0 KECCAK256 SLOAD GT PUSH2 0x6D0 JUMPI PUSH1 0x40 MLOAD PUSH32 0x8C379A000000000000000000000000000000000000000000000000000000000 DUP2 MSTORE PUSH1 0x4 ADD PUSH2 0x6C7 SWAP1 PUSH2 0x1020 JUMP JUMPDEST PUSH1 0x40 MLOAD DUP1 SWAP2 SUB SWAP1 REVERT JUMPDEST PUSH1 0x0 PUSH1 0x7 PUSH1 0x0 DUP4 DUP2 MSTORE PUSH1 0x20 ADD SWAP1 DUP2 MSTORE PUSH1 0x20 ADD PUSH1 0x0 KECCAK256 SWAP1 POP PUSH1 0x0 ISZERO ISZERO DUP2 PUSH1 0x5 ADD PUSH1 0x0 CALLER PUSH20 0xFFFFFFFFFFFFFFFFFFFFFFFFFFFFFFFFFFFFFFFF AND PUSH20 0xFFFFFFFFFFFFFFFFFFFFFFFFFFFFFFFFFFFFFFFF AND DUP2 MSTORE PUSH1 0x20 ADD SWAP1 DUP2 MSTORE PUSH1 0x20 ADD PUSH1 0x0 KECCAK256 PUSH1 0x0 SWAP1 SLOAD SWAP1 PUSH2 0x100 EXP SWAP1 DIV PUSH1 0xFF AND ISZERO ISZERO EQ PUSH2 0x77C JUMPI PUSH1 0x40 MLOAD PUSH32 0x8C379A000000000000000000000000000000000000000000000000000000000 DUP2 MSTORE PUSH1 0x4 ADD PUSH2 0x773 SWAP1 PUSH2 0x1060 JUMP JUMPDEST PUSH1 0x40 MLOAD DUP1 SWAP2 SUB SWAP1 REVERT JUMPDEST PUSH1 0x1 DUP2 PUSH1 0x5 ADD PUSH1 0x0 CALLER PUSH20 0xFFFFFFFFFFFFFFFFFFFFFFFFFFFFFFFFFFFFFFFF AND PUSH20 0xFFFFFFFFFFFFFFFFFFFFFFFFFFFFFFFFFFFFFFFF AND DUP2 MSTORE PUSH1 0x20 ADD SWAP1 DUP2 MSTORE PUSH1 0x20 ADD PUSH1 0x0 KECCAK256 PUSH1 0x0 PUSH2 0x100 EXP DUP2 SLOAD DUP2 PUSH1 0xFF MUL NOT AND SWAP1 DUP4 ISZERO ISZERO MUL OR SWAP1 SSTORE POP DUP1 PUSH1 0x4 ADD PUSH1 0x0 DUP2 SLOAD DUP1 SWAP3 SWAP2 SWAP1 PUSH2 0x7EB SWAP1 PUSH2 0x1293 JUMP JUMPDEST SWAP2 SWAP1 POP SSTORE POP POP POP JUMP JUMPDEST PUSH1 0x6 SLOAD DUP2 JUMP JUMPDEST PUSH1 0x1 PUSH1 0x0 SWAP1 SLOAD SWAP1 PUSH2 0x100 EXP SWAP1 DIV PUSH20 0xFFFFFFFFFFFFFFFFFFFFFFFFFFFFFFFFFFFFFFFF AND PUSH20 0xFFFFFFFFFFFFFFFFFFFFFFFFFFFFFFFFFFFFFFFF AND CALLER PUSH20 0xFFFFFFFFFFFFFFFFFFFFFFFFFFFFFFFFFFFFFFFF AND EQ PUSH2 0x88A JUMPI PUSH1 0x40 MLOAD PUSH32 0x8C379A000000000000000000000000000000000000000000000000000000000 DUP2 MSTORE PUSH1 0x4 ADD PUSH2 0x881 SWAP1 PUSH2 0xFA0 JUMP JUMPDEST PUSH1 0x40 MLOAD DUP1 SWAP2 SUB SWAP1 REVERT JUMPDEST PUSH1 0x4 SLOAD PUSH1 0x5 SLOAD LT ISZERO PUSH2 0x89B JUMPI PUSH1 0x0 DUP1 REVERT JUMPDEST PUSH1 0x0 PUSH1 0x7 PUSH1 0x0 DUP4 DUP2 MSTORE PUSH1 0x20 ADD SWAP1 DUP2 MSTORE PUSH1 0x20 ADD PUSH1 0x0 KECCAK256 SWAP1 POP PUSH1 0x0 ISZERO ISZERO DUP2 PUSH1 0x3 ADD PUSH1 0x0 SWAP1 SLOAD SWAP1 PUSH2 0x100 EXP SWAP1 DIV PUSH1 0xFF AND ISZERO ISZERO EQ PUSH2 0x90A JUMPI PUSH1 0x40 MLOAD PUSH32 0x8C379A000000000000000000000000000000000000000000000000000000000 DUP2 MSTORE PUSH1 0x4 ADD PUSH2 0x901 SWAP1 PUSH2 0x1000 JUMP JUMPDEST PUSH1 0x40 MLOAD DUP1 SWAP2 SUB SWAP1 REVERT JUMPDEST PUSH1 0x2 PUSH1 0x6 SLOAD PUSH2 0x919 SWAP2 SWAP1 PUSH2 0x1163 JUMP JUMPDEST DUP2 PUSH1 0x4 ADD SLOAD GT PUSH2 0x928 JUMPI PUSH1 0x0 DUP1 REVERT JUMPDEST POP POP JUMP JUMPDEST PUSH1 0x3 SLOAD TIMESTAMP GT DUP1 ISZERO PUSH2 0x940 JUMPI POP PUSH1 0x4 SLOAD PUSH1 0x5 SLOAD LT JUMPDEST PUSH2 0x97F JUMPI PUSH1 0x40 MLOAD PUSH32 0x8C379A000000000000000000000000000000000000000000000000000000000 DUP2 MSTORE PUSH1 0x4 ADD PUSH2 0x976 SWAP1 PUSH2 0x1040 JUMP JUMPDEST PUSH1 0x40 MLOAD DUP1 SWAP2 SUB SWAP1 REVERT JUMPDEST PUSH1 0x0 DUP1 PUSH1 0x0 CALLER PUSH20 0xFFFFFFFFFFFFFFFFFFFFFFFFFFFFFFFFFFFFFFFF AND PUSH20 0xFFFFFFFFFFFFFFFFFFFFFFFFFFFFFFFFFFFFFFFF AND DUP2 MSTORE PUSH1 0x20 ADD SWAP1 DUP2 MSTORE PUSH1 0x20 ADD PUSH1 0x0 KECCAK256 SLOAD GT PUSH2 0x9CA JUMPI PUSH1 0x0 DUP1 REVERT JUMPDEST PUSH1 0x0 CALLER SWAP1 POP DUP1 PUSH20 0xFFFFFFFFFFFFFFFFFFFFFFFFFFFFFFFFFFFFFFFF AND PUSH2 0x8FC PUSH1 0x0 DUP1 CALLER PUSH20 0xFFFFFFFFFFFFFFFFFFFFFFFFFFFFFFFFFFFFFFFF AND PUSH20 0xFFFFFFFFFFFFFFFFFFFFFFFFFFFFFFFFFFFFFFFF AND DUP2 MSTORE PUSH1 0x20 ADD SWAP1 DUP2 MSTORE PUSH1 0x20 ADD PUSH1 0x0 KECCAK256 SLOAD SWAP1 DUP2 ISZERO MUL SWAP1 PUSH1 0x40 MLOAD PUSH1 0x0 PUSH1 0x40 MLOAD DUP1 DUP4 SUB DUP2 DUP6 DUP9 DUP9 CALL SWAP4 POP POP POP POP ISZERO DUP1 ISZERO PUSH2 0xA53 JUMPI RETURNDATASIZE PUSH1 0x0 DUP1 RETURNDATACOPY RETURNDATASIZE PUSH1 0x0 REVERT JUMPDEST POP PUSH1 0x0 DUP1 PUSH1 0x0 CALLER PUSH20 0xFFFFFFFFFFFFFFFFFFFFFFFFFFFFFFFFFFFFFFFF AND PUSH20 0xFFFFFFFFFFFFFFFFFFFFFFFFFFFFFFFFFFFFFFFF AND DUP2 MSTORE PUSH1 0x20 ADD SWAP1 DUP2 MSTORE PUSH1 0x20 ADD PUSH1 0x0 KECCAK256 DUP2 SWAP1 SSTORE POP POP JUMP JUMPDEST PUSH1 0x0 SELFBALANCE SWAP1 POP SWAP1 JUMP JUMPDEST PUSH1 0x7 PUSH1 0x20 MSTORE DUP1 PUSH1 0x0 MSTORE PUSH1 0x40 PUSH1 0x0 KECCAK256 PUSH1 0x0 SWAP2 POP SWAP1 POP DUP1 PUSH1 0x0 ADD DUP1 SLOAD PUSH2 0xAC6 SWAP1 PUSH2 0x1230 JUMP JUMPDEST DUP1 PUSH1 0x1F ADD PUSH1 0x20 DUP1 SWAP2 DIV MUL PUSH1 0x20 ADD PUSH1 0x40 MLOAD SWAP1 DUP2 ADD PUSH1 0x40 MSTORE DUP1 SWAP3 SWAP2 SWAP1 DUP2 DUP2 MSTORE PUSH1 0x20 ADD DUP3 DUP1 SLOAD PUSH2 0xAF2 SWAP1 PUSH2 0x1230 JUMP JUMPDEST DUP1 ISZERO PUSH2 0xB3F JUMPI DUP1 PUSH1 0x1F LT PUSH2 0xB14 JUMPI PUSH2 0x100 DUP1 DUP4 SLOAD DIV MUL DUP4 MSTORE SWAP2 PUSH1 0x20 ADD SWAP2 PUSH2 0xB3F JUMP JUMPDEST DUP3 ADD SWAP2 SWAP1 PUSH1 0x0 MSTORE PUSH1 0x20 PUSH1 0x0 KECCAK256 SWAP1 JUMPDEST DUP2 SLOAD DUP2 MSTORE SWAP1 PUSH1 0x1 ADD SWAP1 PUSH1 0x20 ADD DUP1 DUP4 GT PUSH2 0xB22 JUMPI DUP3 SWAP1 SUB PUSH1 0x1F AND DUP3 ADD SWAP2 JUMPDEST POP POP POP POP POP SWAP1 DUP1 PUSH1 0x1 ADD PUSH1 0x0 SWAP1 SLOAD SWAP1 PUSH2 0x100 EXP SWAP1 DIV PUSH20 0xFFFFFFFFFFFFFFFFFFFFFFFFFFFFFFFFFFFFFFFF AND SWAP1 DUP1 PUSH1 0x2 ADD SLOAD SWAP1 DUP1 PUSH1 0x3 ADD PUSH1 0x0 SWAP1 SLOAD SWAP1 PUSH2 0x100 EXP SWAP1 DIV PUSH1 0xFF AND SWAP1 DUP1 PUSH1 0x4 ADD SLOAD SWAP1 POP DUP6 JUMP JUMPDEST PUSH1 0x8 SLOAD DUP2 JUMP JUMPDEST PUSH1 0x2 SLOAD DUP2 JUMP JUMPDEST PUSH1 0x5 SLOAD DUP2 JUMP JUMPDEST PUSH1 0x4 SLOAD DUP2 JUMP JUMPDEST DUP3 DUP1 SLOAD PUSH2 0xBB2 SWAP1 PUSH2 0x1230 JUMP JUMPDEST SWAP1 PUSH1 0x0 MSTORE PUSH1 0x20 PUSH1 0x0 KECCAK256 SWAP1 PUSH1 0x1F ADD PUSH1 0x20 SWAP1 DIV DUP2 ADD SWAP3 DUP3 PUSH2 0xBD4 JUMPI PUSH1 0x0 DUP6 SSTORE PUSH2 0xC1B JUMP JUMPDEST DUP3 PUSH1 0x1F LT PUSH2 0xBED JUMPI DUP1 MLOAD PUSH1 0xFF NOT AND DUP4 DUP1 ADD OR DUP6 SSTORE PUSH2 0xC1B JUMP JUMPDEST DUP3 DUP1 ADD PUSH1 0x1 ADD DUP6 SSTORE DUP3 ISZERO PUSH2 0xC1B JUMPI SWAP2 DUP3 ADD JUMPDEST DUP3 DUP2 GT ISZERO PUSH2 0xC1A JUMPI DUP3 MLOAD DUP3 SSTORE SWAP2 PUSH1 0x20 ADD SWAP2 SWAP1 PUSH1 0x1 ADD SWAP1 PUSH2 0xBFF JUMP JUMPDEST JUMPDEST POP SWAP1 POP PUSH2 0xC28 SWAP2 SWAP1 PUSH2 0xC2C JUMP JUMPDEST POP SWAP1 JUMP JUMPDEST JUMPDEST DUP1 DUP3 GT ISZERO PUSH2 0xC45 JUMPI PUSH1 0x0 DUP2 PUSH1 0x0 SWAP1 SSTORE POP PUSH1 0x1 ADD PUSH2 0xC2D JUMP JUMPDEST POP SWAP1 JUMP JUMPDEST PUSH1 0x0 PUSH2 0xC5C PUSH2 0xC57 DUP5 PUSH2 0x10C0 JUMP JUMPDEST PUSH2 0x109B JUMP JUMPDEST SWAP1 POP DUP3 DUP2 MSTORE PUSH1 0x20 DUP2 ADD DUP5 DUP5 DUP5 ADD GT ISZERO PUSH2 0xC78 JUMPI PUSH2 0xC77 PUSH2 0x139D JUMP JUMPDEST JUMPDEST PUSH2 0xC83 DUP5 DUP3 DUP6 PUSH2 0x11EE JUMP JUMPDEST POP SWAP4 SWAP3 POP POP POP JUMP JUMPDEST PUSH1 0x0 DUP2 CALLDATALOAD SWAP1 POP PUSH2 0xC9A DUP2 PUSH2 0x1502 JUMP JUMPDEST SWAP3 SWAP2 POP POP JUMP JUMPDEST PUSH1 0x0 DUP2 CALLDATALOAD SWAP1 POP PUSH2 0xCAF DUP2 PUSH2 0x1519 JUMP JUMPDEST SWAP3 SWAP2 POP POP JUMP JUMPDEST PUSH1 0x0 DUP3 PUSH1 0x1F DUP4 ADD SLT PUSH2 0xCCA JUMPI PUSH2 0xCC9 PUSH2 0x1398 JUMP JUMPDEST JUMPDEST DUP2 CALLDATALOAD PUSH2 0xCDA DUP5 DUP3 PUSH1 0x20 DUP7 ADD PUSH2 0xC49 JUMP JUMPDEST SWAP2 POP POP SWAP3 SWAP2 POP POP JUMP JUMPDEST PUSH1 0x0 DUP2 CALLDATALOAD SWAP1 POP PUSH2 0xCF2 DUP2 PUSH2 0x1530 JUMP JUMPDEST SWAP3 SWAP2 POP POP JUMP JUMPDEST PUSH1 0x0 PUSH1 0x20 DUP3 DUP5 SUB SLT ISZERO PUSH2 0xD0E JUMPI PUSH2 0xD0D PUSH2 0x13A7 JUMP JUMPDEST JUMPDEST PUSH1 0x0 PUSH2 0xD1C DUP5 DUP3 DUP6 ADD PUSH2 0xC8B JUMP JUMPDEST SWAP2 POP POP SWAP3 SWAP2 POP POP JUMP JUMPDEST PUSH1 0x0 DUP1 PUSH1 0x0 PUSH1 0x60 DUP5 DUP7 SUB SLT ISZERO PUSH2 0xD3E JUMPI PUSH2 0xD3D PUSH2 0x13A7 JUMP JUMPDEST JUMPDEST PUSH1 0x0 DUP5 ADD CALLDATALOAD PUSH8 0xFFFFFFFFFFFFFFFF DUP2 GT ISZERO PUSH2 0xD5C JUMPI PUSH2 0xD5B PUSH2 0x13A2 JUMP JUMPDEST JUMPDEST PUSH2 0xD68 DUP7 DUP3 DUP8 ADD PUSH2 0xCB5 JUMP JUMPDEST SWAP4 POP POP PUSH1 0x20 PUSH2 0xD79 DUP7 DUP3 DUP8 ADD PUSH2 0xCA0 JUMP JUMPDEST SWAP3 POP POP PUSH1 0x40 PUSH2 0xD8A DUP7 DUP3 DUP8 ADD PUSH2 0xCE3 JUMP JUMPDEST SWAP2 POP POP SWAP3 POP SWAP3 POP SWAP3 JUMP JUMPDEST PUSH1 0x0 PUSH1 0x20 DUP3 DUP5 SUB SLT ISZERO PUSH2 0xDAA JUMPI PUSH2 0xDA9 PUSH2 0x13A7 JUMP JUMPDEST JUMPDEST PUSH1 0x0 PUSH2 0xDB8 DUP5 DUP3 DUP6 ADD PUSH2 0xCE3 JUMP JUMPDEST SWAP2 POP POP SWAP3 SWAP2 POP POP JUMP JUMPDEST PUSH2 0xDCA DUP2 PUSH2 0x11A6 JUMP JUMPDEST DUP3 MSTORE POP POP JUMP JUMPDEST PUSH2 0xDD9 DUP2 PUSH2 0x1194 JUMP JUMPDEST DUP3 MSTORE POP POP JUMP JUMPDEST PUSH2 0xDE8 DUP2 PUSH2 0x11B8 JUMP JUMPDEST DUP3 MSTORE POP POP JUMP JUMPDEST PUSH1 0x0 PUSH2 0xDF9 DUP3 PUSH2 0x10F1 JUMP JUMPDEST PUSH2 0xE03 DUP2 DUP6 PUSH2 0x10FC JUMP JUMPDEST SWAP4 POP PUSH2 0xE13 DUP2 DUP6 PUSH1 0x20 DUP7 ADD PUSH2 0x11FD JUMP JUMPDEST PUSH2 0xE1C DUP2 PUSH2 0x13AC JUMP JUMPDEST DUP5 ADD SWAP2 POP POP SWAP3 SWAP2 POP POP JUMP JUMPDEST PUSH1 0x0 PUSH2 0xE34 PUSH1 0x23 DUP4 PUSH2 0x10FC JUMP JUMPDEST SWAP2 POP PUSH2 0xE3F DUP3 PUSH2 0x13BD JUMP JUMPDEST PUSH1 0x40 DUP3 ADD SWAP1 POP SWAP2 SWAP1 POP JUMP JUMPDEST PUSH1 0x0 PUSH2 0xE57 PUSH1 0x13 DUP4 PUSH2 0x10FC JUMP JUMPDEST SWAP2 POP PUSH2 0xE62 DUP3 PUSH2 0x140C JUMP JUMPDEST PUSH1 0x20 DUP3 ADD SWAP1 POP SWAP2 SWAP1 POP JUMP JUMPDEST PUSH1 0x0 PUSH2 0xE7A PUSH1 0x1F DUP4 PUSH2 0x10FC JUMP JUMPDEST SWAP2 POP PUSH2 0xE85 DUP3 PUSH2 0x1435 JUMP JUMPDEST PUSH1 0x20 DUP3 ADD SWAP1 POP SWAP2 SWAP1 POP JUMP JUMPDEST PUSH1 0x0 PUSH2 0xE9D PUSH1 0x1E DUP4 PUSH2 0x10FC JUMP JUMPDEST SWAP2 POP PUSH2 0xEA8 DUP3 PUSH2 0x145E JUMP JUMPDEST PUSH1 0x20 DUP3 ADD SWAP1 POP SWAP2 SWAP1 POP JUMP JUMPDEST PUSH1 0x0 PUSH2 0xEC0 PUSH1 0x19 DUP4 PUSH2 0x10FC JUMP JUMPDEST SWAP2 POP PUSH2 0xECB DUP3 PUSH2 0x1487 JUMP JUMPDEST PUSH1 0x20 DUP3 ADD SWAP1 POP SWAP2 SWAP1 POP JUMP JUMPDEST PUSH1 0x0 PUSH2 0xEE3 PUSH1 0x1F DUP4 PUSH2 0x10FC JUMP JUMPDEST SWAP2 POP PUSH2 0xEEE DUP3 PUSH2 0x14B0 JUMP JUMPDEST PUSH1 0x20 DUP3 ADD SWAP1 POP SWAP2 SWAP1 POP JUMP JUMPDEST PUSH1 0x0 PUSH2 0xF06 PUSH1 0x16 DUP4 PUSH2 0x10FC JUMP JUMPDEST SWAP2 POP PUSH2 0xF11 DUP3 PUSH2 0x14D9 JUMP JUMPDEST PUSH1 0x20 DUP3 ADD SWAP1 POP SWAP2 SWAP1 POP JUMP JUMPDEST PUSH2 0xF25 DUP2 PUSH2 0x11E4 JUMP JUMPDEST DUP3 MSTORE POP POP JUMP JUMPDEST PUSH1 0x0 PUSH1 0x20 DUP3 ADD SWAP1 POP PUSH2 0xF40 PUSH1 0x0 DUP4 ADD DUP5 PUSH2 0xDD0 JUMP JUMPDEST SWAP3 SWAP2 POP POP JUMP JUMPDEST PUSH1 0x0 PUSH1 0xA0 DUP3 ADD SWAP1 POP DUP2 DUP2 SUB PUSH1 0x0 DUP4 ADD MSTORE PUSH2 0xF60 DUP2 DUP9 PUSH2 0xDEE JUMP JUMPDEST SWAP1 POP PUSH2 0xF6F PUSH1 0x20 DUP4 ADD DUP8 PUSH2 0xDC1 JUMP JUMPDEST PUSH2 0xF7C PUSH1 0x40 DUP4 ADD DUP7 PUSH2 0xF1C JUMP JUMPDEST PUSH2 0xF89 PUSH1 0x60 DUP4 ADD DUP6 PUSH2 0xDDF JUMP JUMPDEST PUSH2 0xF96 PUSH1 0x80 DUP4 ADD DUP5 PUSH2 0xF1C JUMP JUMPDEST SWAP7 SWAP6 POP POP POP POP POP POP JUMP JUMPDEST PUSH1 0x0 PUSH1 0x20 DUP3 ADD SWAP1 POP DUP2 DUP2 SUB PUSH1 0x0 DUP4 ADD MSTORE PUSH2 0xFB9 DUP2 PUSH2 0xE27 JUMP JUMPDEST SWAP1 POP SWAP2 SWAP1 POP JUMP JUMPDEST PUSH1 0x0 PUSH1 0x20 DUP3 ADD SWAP1 POP DUP2 DUP2 SUB PUSH1 0x0 DUP4 ADD MSTORE PUSH2 0xFD9 DUP2 PUSH2 0xE4A JUMP JUMPDEST SWAP1 POP SWAP2 SWAP1 POP JUMP JUMPDEST PUSH1 0x0 PUSH1 0x20 DUP3 ADD SWAP1 POP DUP2 DUP2 SUB PUSH1 0x0 DUP4 ADD MSTORE PUSH2 0xFF9 DUP2 PUSH2 0xE6D JUMP JUMPDEST SWAP1 POP SWAP2 SWAP1 POP JUMP JUMPDEST PUSH1 0x0 PUSH1 0x20 DUP3 ADD SWAP1 POP DUP2 DUP2 SUB PUSH1 0x0 DUP4 ADD MSTORE PUSH2 0x1019 DUP2 PUSH2 0xE90 JUMP JUMPDEST SWAP1 POP SWAP2 SWAP1 POP JUMP JUMPDEST PUSH1 0x0 PUSH1 0x20 DUP3 ADD SWAP1 POP DUP2 DUP2 SUB PUSH1 0x0 DUP4 ADD MSTORE PUSH2 0x1039 DUP2 PUSH2 0xEB3 JUMP JUMPDEST SWAP1 POP SWAP2 SWAP1 POP JUMP JUMPDEST PUSH1 0x0 PUSH1 0x20 DUP3 ADD SWAP1 POP DUP2 DUP2 SUB PUSH1 0x0 DUP4 ADD MSTORE PUSH2 0x1059 DUP2 PUSH2 0xED6 JUMP JUMPDEST SWAP1 POP SWAP2 SWAP1 POP JUMP JUMPDEST PUSH1 0x0 PUSH1 0x20 DUP3 ADD SWAP1 POP DUP2 DUP2 SUB PUSH1 0x0 DUP4 ADD MSTORE PUSH2 0x1079 DUP2 PUSH2 0xEF9 JUMP JUMPDEST SWAP1 POP SWAP2 SWAP1 POP JUMP JUMPDEST PUSH1 0x0 PUSH1 0x20 DUP3 ADD SWAP1 POP PUSH2 0x1095 PUSH1 0x0 DUP4 ADD DUP5 PUSH2 0xF1C JUMP JUMPDEST SWAP3 SWAP2 POP POP JUMP JUMPDEST PUSH1 0x0 PUSH2 0x10A5 PUSH2 0x10B6 JUMP JUMPDEST SWAP1 POP PUSH2 0x10B1 DUP3 DUP3 PUSH2 0x1262 JUMP JUMPDEST SWAP2 SWAP1 POP JUMP JUMPDEST PUSH1 0x0 PUSH1 0x40 MLOAD SWAP1 POP SWAP1 JUMP JUMPDEST PUSH1 0x0 PUSH8 0xFFFFFFFFFFFFFFFF DUP3 GT ISZERO PUSH2 0x10DB JUMPI PUSH2 0x10DA PUSH2 0x1369 JUMP JUMPDEST JUMPDEST PUSH2 0x10E4 DUP3 PUSH2 0x13AC JUMP JUMPDEST SWAP1 POP PUSH1 0x20 DUP2 ADD SWAP1 POP SWAP2 SWAP1 POP JUMP JUMPDEST PUSH1 0x0 DUP2 MLOAD SWAP1 POP SWAP2 SWAP1 POP JUMP JUMPDEST PUSH1 0x0 DUP3 DUP3 MSTORE PUSH1 0x20 DUP3 ADD SWAP1 POP SWAP3 SWAP2 POP POP JUMP JUMPDEST PUSH1 0x0 PUSH2 0x1118 DUP3 PUSH2 0x11E4 JUMP JUMPDEST SWAP2 POP PUSH2 0x1123 DUP4 PUSH2 0x11E4 JUMP JUMPDEST SWAP3 POP DUP3 PUSH32 0xFFFFFFFFFFFFFFFFFFFFFFFFFFFFFFFFFFFFFFFFFFFFFFFFFFFFFFFFFFFFFFFF SUB DUP3 GT ISZERO PUSH2 0x1158 JUMPI PUSH2 0x1157 PUSH2 0x12DC JUMP JUMPDEST JUMPDEST DUP3 DUP3 ADD SWAP1 POP SWAP3 SWAP2 POP POP JUMP JUMPDEST PUSH1 0x0 PUSH2 0x116E DUP3 PUSH2 0x11E4 JUMP JUMPDEST SWAP2 POP PUSH2 0x1179 DUP4 PUSH2 0x11E4 JUMP JUMPDEST SWAP3 POP DUP3 PUSH2 0x1189 JUMPI PUSH2 0x1188 PUSH2 0x130B JUMP JUMPDEST JUMPDEST DUP3 DUP3 DIV SWAP1 POP SWAP3 SWAP2 POP POP JUMP JUMPDEST PUSH1 0x0 PUSH2 0x119F DUP3 PUSH2 0x11C4 JUMP JUMPDEST SWAP1 POP SWAP2 SWAP1 POP JUMP JUMPDEST PUSH1 0x0 PUSH2 0x11B1 DUP3 PUSH2 0x11C4 JUMP JUMPDEST SWAP1 POP SWAP2 SWAP1 POP JUMP JUMPDEST PUSH1 0x0 DUP2 ISZERO ISZERO SWAP1 POP SWAP2 SWAP1 POP JUMP JUMPDEST PUSH1 0x0 PUSH20 0xFFFFFFFFFFFFFFFFFFFFFFFFFFFFFFFFFFFFFFFF DUP3 AND SWAP1 POP SWAP2 SWAP1 POP JUMP JUMPDEST PUSH1 0x0 DUP2 SWAP1 POP SWAP2 SWAP1 POP JUMP JUMPDEST DUP3 DUP2 DUP4 CALLDATACOPY PUSH1 0x0 DUP4 DUP4 ADD MSTORE POP POP POP JUMP JUMPDEST PUSH1 0x0 JUMPDEST DUP4 DUP2 LT ISZERO PUSH2 0x121B JUMPI DUP1 DUP3 ADD MLOAD DUP2 DUP5 ADD MSTORE PUSH1 0x20 DUP2 ADD SWAP1 POP PUSH2 0x1200 JUMP JUMPDEST DUP4 DUP2 GT ISZERO PUSH2 0x122A JUMPI PUSH1 0x0 DUP5 DUP5 ADD MSTORE JUMPDEST POP POP POP POP JUMP JUMPDEST PUSH1 0x0 PUSH1 0x2 DUP3 DIV SWAP1 POP PUSH1 0x1 DUP3 AND DUP1 PUSH2 0x1248 JUMPI PUSH1 0x7F DUP3 AND SWAP2 POP JUMPDEST PUSH1 0x20 DUP3 LT DUP2 EQ ISZERO PUSH2 0x125C JUMPI PUSH2 0x125B PUSH2 0x133A JUMP JUMPDEST JUMPDEST POP SWAP2 SWAP1 POP JUMP JUMPDEST PUSH2 0x126B DUP3 PUSH2 0x13AC JUMP JUMPDEST DUP2 ADD DUP2 DUP2 LT PUSH8 0xFFFFFFFFFFFFFFFF DUP3 GT OR ISZERO PUSH2 0x128A JUMPI PUSH2 0x1289 PUSH2 0x1369 JUMP JUMPDEST JUMPDEST DUP1 PUSH1 0x40 MSTORE POP POP POP JUMP JUMPDEST PUSH1 0x0 PUSH2 0x129E DUP3 PUSH2 0x11E4 JUMP JUMPDEST SWAP2 POP PUSH32 0xFFFFFFFFFFFFFFFFFFFFFFFFFFFFFFFFFFFFFFFFFFFFFFFFFFFFFFFFFFFFFFFF DUP3 EQ ISZERO PUSH2 0x12D1 JUMPI PUSH2 0x12D0 PUSH2 0x12DC JUMP JUMPDEST JUMPDEST PUSH1 0x1 DUP3 ADD SWAP1 POP SWAP2 SWAP1 POP JUMP JUMPDEST PUSH32 0x4E487B7100000000000000000000000000000000000000000000000000000000 PUSH1 0x0 MSTORE PUSH1 0x11 PUSH1 0x4 MSTORE PUSH1 0x24 PUSH1 0x0 REVERT JUMPDEST PUSH32 0x4E487B7100000000000000000000000000000000000000000000000000000000 PUSH1 0x0 MSTORE PUSH1 0x12 PUSH1 0x4 MSTORE PUSH1 0x24 PUSH1 0x0 REVERT JUMPDEST PUSH32 0x4E487B7100000000000000000000000000000000000000000000000000000000 PUSH1 0x0 MSTORE PUSH1 0x22 PUSH1 0x4 MSTORE PUSH1 0x24 PUSH1 0x0 REVERT JUMPDEST PUSH32 0x4E487B7100000000000000000000000000000000000000000000000000000000 PUSH1 0x0 MSTORE PUSH1 0x41 PUSH1 0x4 MSTORE PUSH1 0x24 PUSH1 0x0 REVERT JUMPDEST PUSH1 0x0 DUP1 REVERT JUMPDEST PUSH1 0x0 DUP1 REVERT JUMPDEST PUSH1 0x0 DUP1 REVERT JUMPDEST PUSH1 0x0 DUP1 REVERT JUMPDEST PUSH1 0x0 PUSH1 0x1F NOT PUSH1 0x1F DUP4 ADD AND SWAP1 POP SWAP2 SWAP1 POP JUMP JUMPDEST PUSH32 0x4F6E6C79206D616E616765722063616E2063616C6C20746869732066756E6374 PUSH1 0x0 DUP3 ADD MSTORE PUSH32 0x696F6E0000000000000000000000000000000000000000000000000000000000 PUSH1 0x20 DUP3 ADD MSTORE POP JUMP JUMPDEST PUSH32 0x446561646C696E65206861732070617373656400000000000000000000000000 PUSH1 0x0 DUP3 ADD MSTORE POP JUMP JUMPDEST PUSH32 0x4D696E696D756D20636F6E747269627574696F6E206973206E6F74206D657400 PUSH1 0x0 DUP3 ADD MSTORE POP JUMP JUMPDEST PUSH32 0x546865207265717565737420686173206265656E20636F6D706C657465640000 PUSH1 0x0 DUP3 ADD MSTORE POP JUMP JUMPDEST PUSH32 0x596F75206D757374206265206120636F6E7472696275746F7200000000000000 PUSH1 0x0 DUP3 ADD MSTORE POP JUMP JUMPDEST PUSH32 0x596F7520617265206E6F7420656C696769626C6520666F7220726566756E6400 PUSH1 0x0 DUP3 ADD MSTORE POP JUMP JUMPDEST PUSH32 0x596F75206861766520616C726561647920766F74656400000000000000000000 PUSH1 0x0 DUP3 ADD MSTORE POP JUMP JUMPDEST PUSH2 0x150B DUP2 PUSH2 0x1194 JUMP JUMPDEST DUP2 EQ PUSH2 0x1516 JUMPI PUSH1 0x0 DUP1 REVERT JUMPDEST POP JUMP JUMPDEST PUSH2 0x1522 DUP2 PUSH2 0x11A6 JUMP JUMPDEST DUP2 EQ PUSH2 0x152D JUMPI PUSH1 0x0 DUP1 REVERT JUMPDEST POP JUMP JUMPDEST PUSH2 0x1539 DUP2 PUSH2 0x11E4 JUMP JUMPDEST DUP2 EQ PUSH2 0x1544 JUMPI PUSH1 0x0 DUP1 REVERT JUMPDEST POP JUMP INVALID LOG2 PUSH5 0x6970667358 0x22 SLT KECCAK256 RETURNDATASIZE 0xF6 SELFBALANCE 0x2A BLOCKHASH JUMPDEST 0xFC 0x24 0xEC DUP10 POP 0x5F PUSH8 0xD38CD2AB324EAE35 SUB 0xCC NOT DUP2 0xC5 SWAP12 JUMP SWAP7 0xC4 SWAP5 PUSH20 0x64736F6C63430008070033000000000000000000 "
				},
				"gasEstimates": {
					"creation": {
						"codeDepositCost": "1100200",
						"executionCost": "infinite",
						"totalCost": "infinite"
					},
					"external": {
						"contributors(address)": "2860",
						"createRequests(string,address,uint256)": "infinite",
						"deadline()": "2497",
						"getContractBalance()": "406",
						"makePayment(uint256)": "infinite",
						"manager()": "2559",
						"minContribution()": "2473",
						"noOfContributors()": "2518",
						"numRequests()": "2451",
						"raisedAmount()": "2495",
						"refund()": "infinite",
						"requests(uint256)": "infinite",
						"sendEth()": "infinite",
						"target()": "2517",
						"voteRequest(uint256)": "infinite"
					}
				},
				"methodIdentifiers": {
					"contributors(address)": "1f6d4942",
					"createRequests(string,address,uint256)": "3eb7647b",
					"deadline()": "29dcb0cf",
					"getContractBalance()": "6f9fb98a",
					"makePayment(uint256)": "5114cb52",
					"manager()": "481c6a75",
					"minContribution()": "aaffadf3",
					"noOfContributors()": "4e260f6f",
					"numRequests()": "9fb42b1f",
					"raisedAmount()": "c59ee1dc",
					"refund()": "590e1ae3",
					"requests(uint256)": "81d12c58",
					"sendEth()": "06e99fef",
					"target()": "d4b83992",
					"voteRequest(uint256)": "4cb6f4a5"
				}
			},
			"storageLayout": {
				"storage": [
					{
						"astId": 5,
						"contract": "CrowdFunding.sol:CrowdFunding",
						"label": "contributors",
						"offset": 0,
						"slot": "0",
						"type": "t_mapping(t_address,t_uint256)"
					},
					{
						"astId": 7,
						"contract": "CrowdFunding.sol:CrowdFunding",
						"label": "manager",
						"offset": 0,
						"slot": "1",
						"type": "t_address"
					},
					{
						"astId": 9,
						"contract": "CrowdFunding.sol:CrowdFunding",
						"label": "minContribution",
						"offset": 0,
						"slot": "2",
						"type": "t_uint256"
					},
					{
						"astId": 11,
						"contract": "CrowdFunding.sol:CrowdFunding",
						"label": "deadline",
						"offset": 0,
						"slot": "3",
						"type": "t_uint256"
					},
					{
						"astId": 13,
						"contract": "CrowdFunding.sol:CrowdFunding",
						"label": "target",
						"offset": 0,
						"slot": "4",
						"type": "t_uint256"
					},
					{
						"astId": 15,
						"contract": "CrowdFunding.sol:CrowdFunding",
						"label": "raisedAmount",
						"offset": 0,
						"slot": "5",
						"type": "t_uint256"
					},
					{
						"astId": 17,
						"contract": "CrowdFunding.sol:CrowdFunding",
						"label": "noOfContributors",
						"offset": 0,
						"slot": "6",
						"type": "t_uint256"
					},
					{
						"astId": 37,
						"contract": "CrowdFunding.sol:CrowdFunding",
						"label": "requests",
						"offset": 0,
						"slot": "7",
						"type": "t_mapping(t_uint256,t_struct(Request)32_storage)"
					},
					{
						"astId": 39,
						"contract": "CrowdFunding.sol:CrowdFunding",
						"label": "numRequests",
						"offset": 0,
						"slot": "8",
						"type": "t_uint256"
					}
				],
				"types": {
					"t_address": {
						"encoding": "inplace",
						"label": "address",
						"numberOfBytes": "20"
					},
					"t_address_payable": {
						"encoding": "inplace",
						"label": "address payable",
						"numberOfBytes": "20"
					},
					"t_bool": {
						"encoding": "inplace",
						"label": "bool",
						"numberOfBytes": "1"
					},
					"t_mapping(t_address,t_bool)": {
						"encoding": "mapping",
						"key": "t_address",
						"label": "mapping(address => bool)",
						"numberOfBytes": "32",
						"value": "t_bool"
					},
					"t_mapping(t_address,t_uint256)": {
						"encoding": "mapping",
						"key": "t_address",
						"label": "mapping(address => uint256)",
						"numberOfBytes": "32",
						"value": "t_uint256"
					},
					"t_mapping(t_uint256,t_struct(Request)32_storage)": {
						"encoding": "mapping",
						"key": "t_uint256",
						"label": "mapping(uint256 => struct CrowdFunding.Request)",
						"numberOfBytes": "32",
						"value": "t_struct(Request)32_storage"
					},
					"t_string_storage": {
						"encoding": "bytes",
						"label": "string",
						"numberOfBytes": "32"
					},
					"t_struct(Request)32_storage": {
						"encoding": "inplace",
						"label": "struct CrowdFunding.Request",
						"members": [
							{
								"astId": 19,
								"contract": "CrowdFunding.sol:CrowdFunding",
								"label": "description",
								"offset": 0,
								"slot": "0",
								"type": "t_string_storage"
							},
							{
								"astId": 21,
								"contract": "CrowdFunding.sol:CrowdFunding",
								"label": "recipient",
								"offset": 0,
								"slot": "1",
								"type": "t_address_payable"
							},
							{
								"astId": 23,
								"contract": "CrowdFunding.sol:CrowdFunding",
								"label": "value",
								"offset": 0,
								"slot": "2",
								"type": "t_uint256"
							},
							{
								"astId": 25,
								"contract": "CrowdFunding.sol:CrowdFunding",
								"label": "completed",
								"offset": 0,
								"slot": "3",
								"type": "t_bool"
							},
							{
								"astId": 27,
								"contract": "CrowdFunding.sol:CrowdFunding",
								"label": "noOfVoters",
								"offset": 0,
								"slot": "4",
								"type": "t_uint256"
							},
							{
								"astId": 31,
								"contract": "CrowdFunding.sol:CrowdFunding",
								"label": "voters",
								"offset": 0,
								"slot": "5",
								"type": "t_mapping(t_address,t_bool)"
							}
						],
						"numberOfBytes": "192"
					},
					"t_uint256": {
						"encoding": "inplace",
						"label": "uint256",
						"numberOfBytes": "32"
					}
				}
			},
			"userdoc": {
				"kind": "user",
				"methods": {},
				"version": 1
			}
		}
	}
}